{
  "contractName": "TraceableToken",
  "abi": [
    {
      "constant": true,
      "inputs": [
        {
          "name": "interfaceId",
          "type": "bytes4"
        }
      ],
      "name": "supportsInterface",
      "outputs": [
        {
          "name": "",
          "type": "bool"
        }
      ],
      "payable": false,
      "stateMutability": "view",
      "type": "function",
      "signature": "0x01ffc9a7"
    },
    {
      "constant": true,
      "inputs": [],
      "name": "name",
      "outputs": [
        {
          "name": "",
          "type": "string"
        }
      ],
      "payable": false,
      "stateMutability": "view",
      "type": "function",
      "signature": "0x06fdde03"
    },
    {
      "constant": true,
      "inputs": [
        {
          "name": "tokenId",
          "type": "uint256"
        }
      ],
      "name": "getApproved",
      "outputs": [
        {
          "name": "",
          "type": "address"
        }
      ],
      "payable": false,
      "stateMutability": "view",
      "type": "function",
      "signature": "0x081812fc"
    },
    {
      "constant": false,
      "inputs": [
        {
          "name": "to",
          "type": "address"
        },
        {
          "name": "tokenId",
          "type": "uint256"
        }
      ],
      "name": "approve",
      "outputs": [],
      "payable": false,
      "stateMutability": "nonpayable",
      "type": "function",
      "signature": "0x095ea7b3"
    },
    {
      "constant": false,
      "inputs": [
        {
          "name": "from",
          "type": "address"
        },
        {
          "name": "to",
          "type": "address"
        },
        {
          "name": "tokenId",
          "type": "uint256"
        }
      ],
      "name": "transferFrom",
      "outputs": [],
      "payable": false,
      "stateMutability": "nonpayable",
      "type": "function",
      "signature": "0x23b872dd"
    },
    {
      "constant": false,
      "inputs": [
        {
          "name": "from",
          "type": "address"
        },
        {
          "name": "to",
          "type": "address"
        },
        {
          "name": "tokenId",
          "type": "uint256"
        }
      ],
      "name": "safeTransferFrom",
      "outputs": [],
      "payable": false,
      "stateMutability": "nonpayable",
      "type": "function",
      "signature": "0x42842e0e"
    },
    {
      "constant": true,
      "inputs": [
        {
          "name": "tokenId",
          "type": "uint256"
        }
      ],
      "name": "ownerOf",
      "outputs": [
        {
          "name": "",
          "type": "address"
        }
      ],
      "payable": false,
      "stateMutability": "view",
      "type": "function",
      "signature": "0x6352211e"
    },
    {
      "constant": true,
      "inputs": [
        {
          "name": "owner",
          "type": "address"
        }
      ],
      "name": "balanceOf",
      "outputs": [
        {
          "name": "",
          "type": "uint256"
        }
      ],
      "payable": false,
      "stateMutability": "view",
      "type": "function",
      "signature": "0x70a08231"
    },
    {
      "constant": true,
      "inputs": [],
      "name": "symbol",
      "outputs": [
        {
          "name": "",
          "type": "string"
        }
      ],
      "payable": false,
      "stateMutability": "view",
      "type": "function",
      "signature": "0x95d89b41"
    },
    {
      "constant": false,
      "inputs": [
        {
          "name": "to",
          "type": "address"
        },
        {
          "name": "approved",
          "type": "bool"
        }
      ],
      "name": "setApprovalForAll",
      "outputs": [],
      "payable": false,
      "stateMutability": "nonpayable",
      "type": "function",
      "signature": "0xa22cb465"
    },
    {
      "constant": true,
      "inputs": [
        {
          "name": "",
          "type": "uint256"
        },
        {
          "name": "",
          "type": "uint256"
        }
      ],
      "name": "distributeRate",
      "outputs": [
        {
          "name": "",
          "type": "uint256"
        }
      ],
      "payable": false,
      "stateMutability": "view",
      "type": "function",
      "signature": "0xb87a5f5b"
    },
    {
      "constant": false,
      "inputs": [
        {
          "name": "from",
          "type": "address"
        },
        {
          "name": "to",
          "type": "address"
        },
        {
          "name": "tokenId",
          "type": "uint256"
        },
        {
          "name": "_data",
          "type": "bytes"
        }
      ],
      "name": "safeTransferFrom",
      "outputs": [],
      "payable": false,
      "stateMutability": "nonpayable",
      "type": "function",
      "signature": "0xb88d4fde"
    },
    {
      "constant": true,
      "inputs": [
        {
          "name": "tokenId",
          "type": "uint256"
        }
      ],
      "name": "tokenURI",
      "outputs": [
        {
          "name": "",
          "type": "string"
        }
      ],
      "payable": false,
      "stateMutability": "view",
      "type": "function",
      "signature": "0xc87b56dd"
    },
    {
      "constant": true,
      "inputs": [
        {
          "name": "",
          "type": "uint256"
        },
        {
          "name": "",
          "type": "uint256"
        }
      ],
      "name": "referencedTokenIds",
      "outputs": [
        {
          "name": "",
          "type": "uint256"
        }
      ],
      "payable": false,
      "stateMutability": "view",
      "type": "function",
      "signature": "0xcff688e9"
    },
    {
      "constant": true,
      "inputs": [
        {
          "name": "",
          "type": "uint256"
        }
      ],
      "name": "tokenName",
      "outputs": [
        {
          "name": "",
          "type": "string"
        }
      ],
      "payable": false,
      "stateMutability": "view",
      "type": "function",
      "signature": "0xe725f877"
    },
    {
      "constant": true,
      "inputs": [
        {
          "name": "owner",
          "type": "address"
        },
        {
          "name": "operator",
          "type": "address"
        }
      ],
      "name": "isApprovedForAll",
      "outputs": [
        {
          "name": "",
          "type": "bool"
        }
      ],
      "payable": false,
      "stateMutability": "view",
      "type": "function",
      "signature": "0xe985e9c5"
    },
    {
      "inputs": [],
      "payable": false,
      "stateMutability": "nonpayable",
      "type": "constructor",
      "signature": "constructor"
    },
    {
      "anonymous": false,
      "inputs": [
        {
          "indexed": true,
          "name": "from",
          "type": "address"
        },
        {
          "indexed": true,
          "name": "to",
          "type": "address"
        },
        {
          "indexed": true,
          "name": "amount",
          "type": "uint256"
        }
      ],
      "name": "TransferEther",
      "type": "event",
      "signature": "0xbfb7efd7d5ea800a27a15d77272a7f3467a453990b2e81d1b7537725bb2ea166"
    },
    {
      "anonymous": false,
      "inputs": [
        {
          "indexed": true,
          "name": "from",
          "type": "address"
        },
        {
          "indexed": true,
          "name": "to",
          "type": "address"
        },
        {
          "indexed": true,
          "name": "tokenId",
          "type": "uint256"
        }
      ],
      "name": "Transfer",
      "type": "event",
      "signature": "0xddf252ad1be2c89b69c2b068fc378daa952ba7f163c4a11628f55a4df523b3ef"
    },
    {
      "anonymous": false,
      "inputs": [
        {
          "indexed": true,
          "name": "owner",
          "type": "address"
        },
        {
          "indexed": true,
          "name": "approved",
          "type": "address"
        },
        {
          "indexed": true,
          "name": "tokenId",
          "type": "uint256"
        }
      ],
      "name": "Approval",
      "type": "event",
      "signature": "0x8c5be1e5ebec7d5bd14f71427d1e84f3dd0314c0f7b2291e5b200ac8c7c3b925"
    },
    {
      "anonymous": false,
      "inputs": [
        {
          "indexed": true,
          "name": "owner",
          "type": "address"
        },
        {
          "indexed": true,
          "name": "operator",
          "type": "address"
        },
        {
          "indexed": false,
          "name": "approved",
          "type": "bool"
        }
      ],
      "name": "ApprovalForAll",
      "type": "event",
      "signature": "0x17307eab39ab6107e8899845ad3d59bd9653f200f220920489ca2b5937696c31"
    },
    {
      "constant": false,
      "inputs": [
        {
          "name": "_ipfsHash",
          "type": "string"
        },
        {
          "name": "_tokenName",
          "type": "string"
        },
        {
          "name": "_referencedIds",
          "type": "uint256[]"
        },
        {
          "name": "_distributeRate",
          "type": "uint256[]"
        }
      ],
      "name": "mint",
      "outputs": [],
      "payable": false,
      "stateMutability": "nonpayable",
      "type": "function",
      "signature": "0x5488e806"
    },
    {
      "constant": true,
      "inputs": [
        {
          "name": "_tokenId",
          "type": "uint256"
        }
      ],
      "name": "getTokenName",
      "outputs": [
        {
          "name": "",
          "type": "string"
        }
      ],
      "payable": false,
      "stateMutability": "view",
      "type": "function",
      "signature": "0xdbe16c07"
    },
    {
      "constant": false,
      "inputs": [
        {
          "name": "_tokenId",
          "type": "uint256"
        },
        {
          "name": "_referencedIds",
          "type": "uint256[]"
        },
        {
          "name": "_distributeRate",
          "type": "uint256[]"
        }
      ],
      "name": "updateRereferencedTokenId",
      "outputs": [],
      "payable": false,
      "stateMutability": "nonpayable",
      "type": "function",
      "signature": "0xc9027c01"
    },
    {
      "constant": true,
      "inputs": [
        {
          "name": "_tokenId",
          "type": "uint256"
        }
      ],
      "name": "getRereferencedTokenId",
      "outputs": [
        {
          "name": "",
          "type": "uint256[]"
        }
      ],
      "payable": false,
      "stateMutability": "view",
      "type": "function",
      "signature": "0xcfcbbc19"
    },
    {
      "constant": false,
      "inputs": [
        {
          "name": "_tokenId",
          "type": "uint256"
        }
      ],
      "name": "sendEther",
      "outputs": [],
      "payable": true,
      "stateMutability": "payable",
      "type": "function",
      "signature": "0xf88d331a"
    },
    {
      "constant": false,
      "inputs": [
        {
          "name": "_tokenId",
          "type": "uint256"
        },
        {
          "name": "_amount",
          "type": "uint256"
        }
      ],
      "name": "forLoop",
      "outputs": [],
      "payable": true,
      "stateMutability": "payable",
      "type": "function",
      "signature": "0x0622f8d4"
    },
    {
      "constant": true,
      "inputs": [],
      "name": "numberOfToken",
      "outputs": [
        {
          "name": "",
          "type": "uint256"
        }
      ],
      "payable": false,
      "stateMutability": "view",
      "type": "function",
      "signature": "0xbf1f577b"
    }
  ],
  "bytecode": "0x608060405260006008553480156200001657600080fd5b506040805190810160405280600881526020017f475820546f6b656e0000000000000000000000000000000000000000000000008152506040805190810160405280600281526020017f4758000000000000000000000000000000000000000000000000000000000000815250620000c06301ffc9a77c01000000000000000000000000000000000000000000000000000000000262000174640100000000026401000000009004565b620000fd6380ac58cd7c01000000000000000000000000000000000000000000000000000000000262000174640100000000026401000000009004565b81600590805190602001906200011592919062000232565b5080600690805190602001906200012e92919062000232565b506200016c635b5e139f7c01000000000000000000000000000000000000000000000000000000000262000174640100000000026401000000009004565b5050620002e1565b63ffffffff7c010000000000000000000000000000000000000000000000000000000002817bffffffffffffffffffffffffffffffffffffffffffffffffffffffff191614151515620001c657600080fd5b6001600080837bffffffffffffffffffffffffffffffffffffffffffffffffffffffff19167bffffffffffffffffffffffffffffffffffffffffffffffffffffffff1916815260200190815260200160002060006101000a81548160ff02191690831515021790555050565b828054600181600116156101000203166002900490600052602060002090601f016020900481019282601f106200027557805160ff1916838001178555620002a6565b82800160010185558215620002a6579182015b82811115620002a557825182559160200191906001019062000288565b5b509050620002b59190620002b9565b5090565b620002de91905b80821115620002da576000816000905550600101620002c0565b5090565b90565b61293f80620002f16000396000f3fe608060405260043610610133576000357c0100000000000000000000000000000000000000000000000000000000900463ffffffff16806301ffc9a7146101385780630622f8d4146101aa57806306fdde03146101e2578063081812fc14610272578063095ea7b3146102ed57806323b872dd1461034857806342842e0e146103c35780635488e8061461043e5780636352211e146106c557806370a082311461074057806395d89b41146107a5578063a22cb46514610835578063b87a5f5b14610892578063b88d4fde146108eb578063bf1f577b146109fd578063c87b56dd14610a28578063c9027c0114610adc578063cfcbbc1914610bc1578063cff688e914610c51578063dbe16c0714610caa578063e725f87714610d5e578063e985e9c514610e12578063f88d331a14610e9b575b600080fd5b34801561014457600080fd5b506101906004803603602081101561015b57600080fd5b8101908080357bffffffffffffffffffffffffffffffffffffffffffffffffffffffff19169060200190929190505050610ec9565b604051808215151515815260200191505060405180910390f35b6101e0600480360360408110156101c057600080fd5b810190808035906020019092919080359060200190929190505050610f30565b005b3480156101ee57600080fd5b506101f761111b565b6040518080602001828103825283818151815260200191508051906020019080838360005b8381101561023757808201518184015260208101905061021c565b50505050905090810190601f1680156102645780820380516001836020036101000a031916815260200191505b509250505060405180910390f35b34801561027e57600080fd5b506102ab6004803603602081101561029557600080fd5b81019080803590602001909291905050506111bd565b604051808273ffffffffffffffffffffffffffffffffffffffff1673ffffffffffffffffffffffffffffffffffffffff16815260200191505060405180910390f35b3480156102f957600080fd5b506103466004803603604081101561031057600080fd5b81019080803573ffffffffffffffffffffffffffffffffffffffff1690602001909291908035906020019092919050505061120e565b005b34801561035457600080fd5b506103c16004803603606081101561036b57600080fd5b81019080803573ffffffffffffffffffffffffffffffffffffffff169060200190929190803573ffffffffffffffffffffffffffffffffffffffff16906020019092919080359060200190929190505050611353565b005b3480156103cf57600080fd5b5061043c600480360360608110156103e657600080fd5b81019080803573ffffffffffffffffffffffffffffffffffffffff169060200190929190803573ffffffffffffffffffffffffffffffffffffffff16906020019092919080359060200190929190505050611378565b005b34801561044a57600080fd5b506106c36004803603608081101561046157600080fd5b810190808035906020019064010000000081111561047e57600080fd5b82018360208201111561049057600080fd5b803590602001918460018302840111640100000000831117156104b257600080fd5b91908080601f016020809104026020016040519081016040528093929190818152602001838380828437600081840152601f19601f8201169050808301925050505050505091929192908035906020019064010000000081111561051557600080fd5b82018360208201111561052757600080fd5b8035906020019184600183028401116401000000008311171561054957600080fd5b91908080601f016020809104026020016040519081016040528093929190818152602001838380828437600081840152601f19601f820116905080830192505050505050509192919290803590602001906401000000008111156105ac57600080fd5b8201836020820111156105be57600080fd5b803590602001918460208302840111640100000000831117156105e057600080fd5b919080806020026020016040519081016040528093929190818152602001838360200280828437600081840152601f19601f8201169050808301925050505050505091929192908035906020019064010000000081111561064057600080fd5b82018360208201111561065257600080fd5b8035906020019184602083028401116401000000008311171561067457600080fd5b919080806020026020016040519081016040528093929190818152602001838360200280828437600081840152601f19601f820116905080830192505050505050509192919290505050611399565b005b3480156106d157600080fd5b506106fe600480360360208110156106e857600080fd5b81019080803590602001909291905050506113ec565b604051808273ffffffffffffffffffffffffffffffffffffffff1673ffffffffffffffffffffffffffffffffffffffff16815260200191505060405180910390f35b34801561074c57600080fd5b5061078f6004803603602081101561076357600080fd5b81019080803573ffffffffffffffffffffffffffffffffffffffff16906020019092919050505061146a565b6040518082815260200191505060405180910390f35b3480156107b157600080fd5b506107ba6114ee565b6040518080602001828103825283818151815260200191508051906020019080838360005b838110156107fa5780820151818401526020810190506107df565b50505050905090810190601f1680156108275780820380516001836020036101000a031916815260200191505b509250505060405180910390f35b34801561084157600080fd5b506108906004803603604081101561085857600080fd5b81019080803573ffffffffffffffffffffffffffffffffffffffff169060200190929190803515159060200190929190505050611590565b005b34801561089e57600080fd5b506108d5600480360360408110156108b557600080fd5b8101908080359060200190929190803590602001909291905050506116cc565b6040518082815260200191505060405180910390f35b3480156108f757600080fd5b506109fb6004803603608081101561090e57600080fd5b81019080803573ffffffffffffffffffffffffffffffffffffffff169060200190929190803573ffffffffffffffffffffffffffffffffffffffff169060200190929190803590602001909291908035906020019064010000000081111561097557600080fd5b82018360208201111561098757600080fd5b803590602001918460018302840111640100000000831117156109a957600080fd5b91908080601f016020809104026020016040519081016040528093929190818152602001838380828437600081840152601f19601f8201169050808301925050505050505091929192905050506116f1565b005b348015610a0957600080fd5b50610a12611719565b6040518082815260200191505060405180910390f35b348015610a3457600080fd5b50610a6160048036036020811015610a4b57600080fd5b8101908080359060200190929190505050611723565b6040518080602001828103825283818151815260200191508051906020019080838360005b83811015610aa1578082015181840152602081019050610a86565b50505050905090810190601f168015610ace5780820380516001836020036101000a031916815260200191505b509250505060405180910390f35b348015610ae857600080fd5b50610bbf60048036036060811015610aff57600080fd5b810190808035906020019092919080359060200190640100000000811115610b2657600080fd5b820183602082011115610b3857600080fd5b80359060200191846020830284011164010000000083111715610b5a57600080fd5b909192939192939080359060200190640100000000811115610b7b57600080fd5b820183602082011115610b8d57600080fd5b80359060200191846020830284011164010000000083111715610baf57600080fd5b90919293919293905050506117ec565b005b348015610bcd57600080fd5b50610bfa60048036036020811015610be457600080fd5b81019080803590602001909291905050506119f5565b6040518080602001828103825283818151815260200191508051906020019060200280838360005b83811015610c3d578082015181840152602081019050610c22565b505050509050019250505060405180910390f35b348015610c5d57600080fd5b50610c9460048036036040811015610c7457600080fd5b810190808035906020019092919080359060200190929190505050611a7a565b6040518082815260200191505060405180910390f35b348015610cb657600080fd5b50610ce360048036036020811015610ccd57600080fd5b8101908080359060200190929190505050611aaa565b6040518080602001828103825283818151815260200191508051906020019080838360005b83811015610d23578082015181840152602081019050610d08565b50505050905090810190601f168015610d505780820380516001836020036101000a031916815260200191505b509250505060405180910390f35b348015610d6a57600080fd5b50610d9760048036036020811015610d8157600080fd5b8101908080359060200190929190505050611b5f565b6040518080602001828103825283818151815260200191508051906020019080838360005b83811015610dd7578082015181840152602081019050610dbc565b50505050905090810190601f168015610e045780820380516001836020036101000a031916815260200191505b509250505060405180910390f35b348015610e1e57600080fd5b50610e8160048036036040811015610e3557600080fd5b81019080803573ffffffffffffffffffffffffffffffffffffffff169060200190929190803573ffffffffffffffffffffffffffffffffffffffff169060200190929190505050611c0f565b604051808215151515815260200191505060405180910390f35b610ec760048036036020811015610eb157600080fd5b8101908080359060200190929190505050611ca3565b005b6000806000837bffffffffffffffffffffffffffffffffffffffffffffffffffffffff19167bffffffffffffffffffffffffffffffffffffffffffffffffffffffff1916815260200190815260200160002060009054906101000a900460ff169050919050565b6000610f3b836113ec565b90506000600b600085815260200190815260200160002060008581526020019081526020016000205490508173ffffffffffffffffffffffffffffffffffffffff166108fc610fa66064610f988588611cb690919063ffffffff16565b611cf490919063ffffffff16565b9081150290604051600060405180830381858888f19350505050158015610fd1573d6000803e3d6000fd5b50610ff86064610fea8386611cb690919063ffffffff16565b611cf490919063ffffffff16565b8273ffffffffffffffffffffffffffffffffffffffff163373ffffffffffffffffffffffffffffffffffffffff167fbfb7efd7d5ea800a27a15d77272a7f3467a453990b2e81d1b7537725bb2ea16660405160405180910390a4606061105d856119f5565b90506000815111156111145760008090505b8151811015611112576000600b60008881526020019081526020016000206000848481518110151561109d57fe5b90602001906020020151815260200190815260200160002054905060006110e060646110d2848a611cb690919063ffffffff16565b611cf490919063ffffffff16565b905061110384848151811015156110f357fe5b9060200190602002015182610f30565b5050808060010191505061106f565b505b5050505050565b606060058054600181600116156101000203166002900480601f0160208091040260200160405190810160405280929190818152602001828054600181600116156101000203166002900480156111b35780601f10611188576101008083540402835291602001916111b3565b820191906000526020600020905b81548152906001019060200180831161119657829003601f168201915b5050505050905090565b60006111c882611d1e565b15156111d357600080fd5b6002600083815260200190815260200160002060009054906101000a900473ffffffffffffffffffffffffffffffffffffffff169050919050565b6000611219826113ec565b90508073ffffffffffffffffffffffffffffffffffffffff168373ffffffffffffffffffffffffffffffffffffffff161415151561125657600080fd5b8073ffffffffffffffffffffffffffffffffffffffff163373ffffffffffffffffffffffffffffffffffffffff16148061129657506112958133611c0f565b5b15156112a157600080fd5b826002600084815260200190815260200160002060006101000a81548173ffffffffffffffffffffffffffffffffffffffff021916908373ffffffffffffffffffffffffffffffffffffffff160217905550818373ffffffffffffffffffffffffffffffffffffffff168273ffffffffffffffffffffffffffffffffffffffff167f8c5be1e5ebec7d5bd14f71427d1e84f3dd0314c0f7b2291e5b200ac8c7c3b92560405160405180910390a4505050565b61135d3382611d90565b151561136857600080fd5b611373838383611e25565b505050565b61139483838360206040519081016040528060008152506116f1565b505050565b6113af600160085461208a90919063ffffffff16565b6008819055506113c1336008546120ab565b6113cd60085485612244565b6113d960085484612252565b6113e6600854838361227e565b50505050565b6000806001600084815260200190815260200160002060009054906101000a900473ffffffffffffffffffffffffffffffffffffffff169050600073ffffffffffffffffffffffffffffffffffffffff168173ffffffffffffffffffffffffffffffffffffffff161415151561146157600080fd5b80915050919050565b60008073ffffffffffffffffffffffffffffffffffffffff168273ffffffffffffffffffffffffffffffffffffffff16141515156114a757600080fd5b600360008373ffffffffffffffffffffffffffffffffffffffff1673ffffffffffffffffffffffffffffffffffffffff168152602001908152602001600020549050919050565b606060068054600181600116156101000203166002900480601f0160208091040260200160405190810160405280929190818152602001828054600181600116156101000203166002900480156115865780601f1061155b57610100808354040283529160200191611586565b820191906000526020600020905b81548152906001019060200180831161156957829003601f168201915b5050505050905090565b3373ffffffffffffffffffffffffffffffffffffffff168273ffffffffffffffffffffffffffffffffffffffff16141515156115cb57600080fd5b80600460003373ffffffffffffffffffffffffffffffffffffffff1673ffffffffffffffffffffffffffffffffffffffff16815260200190815260200160002060008473ffffffffffffffffffffffffffffffffffffffff1673ffffffffffffffffffffffffffffffffffffffff16815260200190815260200160002060006101000a81548160ff0219169083151502179055508173ffffffffffffffffffffffffffffffffffffffff163373ffffffffffffffffffffffffffffffffffffffff167f17307eab39ab6107e8899845ad3d59bd9653f200f220920489ca2b5937696c3183604051808215151515815260200191505060405180910390a35050565b600b602052816000526040600020602052806000526040600020600091509150505481565b6116fc848484611353565b6117088484848461247c565b151561171357600080fd5b50505050565b6000600854905090565b606061172e82611d1e565b151561173957600080fd5b600760008381526020019081526020016000208054600181600116156101000203166002900480601f0160208091040260200160405190810160405280929190818152602001828054600181600116156101000203166002900480156117e05780601f106117b5576101008083540402835291602001916117e0565b820191906000526020600020905b8154815290600101906020018083116117c357829003601f168201915b50505050509050919050565b6117f585611d1e565b151561180057600080fd5b600084849050111561182857818190506001858590500114151561182357600080fd5b61183d565b818190508484905014151561183c57600080fd5b5b6000611848866113ec565b90503373ffffffffffffffffffffffffffffffffffffffff168173ffffffffffffffffffffffffffffffffffffffff1614151561188457600080fd5b60008090505b858590508110156118ca576118b286868381811015156118a657fe5b90506020020135611d1e565b15156118bd57600080fd5b808060010191505061188a565b508484600a600089815260200190815260200160002091906118ed9291906127d4565b50600080905060008090505b8484905081101561192a57848482818110151561191257fe5b905060200201358201915080806001019150506118f9565b506064811115151561193b57600080fd5b83836000818110151561194a57fe5b90506020020135600b600089815260200190815260200160002060008981526020019081526020016000208190555060008090505b848490508110156119eb57848482818110151561199857fe5b90506020020135600b60008a8152602001908152602001600020600089896001860381811015156119c557fe5b90506020020135815260200190815260200160002081905550808060010191505061197f565b5050505050505050565b6060611a0082611d1e565b1515611a0b57600080fd5b6060600a6000848152602001908152602001600020805480602002602001604051908101604052809291908181526020018280548015611a6a57602002820191906000526020600020905b815481526020019060010190808311611a56575b5050505050905080915050919050565b600a60205281600052604060002081815481101515611a9557fe5b90600052602060002001600091509150505481565b6060600960008381526020019081526020016000208054600181600116156101000203166002900480601f016020809104026020016040519081016040528092919081815260200182805460018160011615610100020316600290048015611b535780601f10611b2857610100808354040283529160200191611b53565b820191906000526020600020905b815481529060010190602001808311611b3657829003601f168201915b50505050509050919050565b60096020528060005260406000206000915090508054600181600116156101000203166002900480601f016020809104026020016040519081016040528092919081815260200182805460018160011615610100020316600290048015611c075780601f10611bdc57610100808354040283529160200191611c07565b820191906000526020600020905b815481529060010190602001808311611bea57829003601f168201915b505050505081565b6000600460008473ffffffffffffffffffffffffffffffffffffffff1673ffffffffffffffffffffffffffffffffffffffff16815260200190815260200160002060008373ffffffffffffffffffffffffffffffffffffffff1673ffffffffffffffffffffffffffffffffffffffff16815260200190815260200160002060009054906101000a900460ff16905092915050565b6000349050611cb28282610f30565b5050565b600080831415611cc95760009050611cee565b60008284029050828482811515611cdc57fe5b04141515611ce957600080fd5b809150505b92915050565b60008082111515611d0457600080fd5b60008284811515611d1157fe5b0490508091505092915050565b6000806001600084815260200190815260200160002060009054906101000a900473ffffffffffffffffffffffffffffffffffffffff169050600073ffffffffffffffffffffffffffffffffffffffff168173ffffffffffffffffffffffffffffffffffffffff161415915050919050565b600080611d9c836113ec565b90508073ffffffffffffffffffffffffffffffffffffffff168473ffffffffffffffffffffffffffffffffffffffff161480611e0b57508373ffffffffffffffffffffffffffffffffffffffff16611df3846111bd565b73ffffffffffffffffffffffffffffffffffffffff16145b80611e1c5750611e1b8185611c0f565b5b91505092915050565b8273ffffffffffffffffffffffffffffffffffffffff16611e45826113ec565b73ffffffffffffffffffffffffffffffffffffffff16141515611e6757600080fd5b600073ffffffffffffffffffffffffffffffffffffffff168273ffffffffffffffffffffffffffffffffffffffff1614151515611ea357600080fd5b611eac8161269f565b611eff6001600360008673ffffffffffffffffffffffffffffffffffffffff1673ffffffffffffffffffffffffffffffffffffffff1681526020019081526020016000205461275f90919063ffffffff16565b600360008573ffffffffffffffffffffffffffffffffffffffff1673ffffffffffffffffffffffffffffffffffffffff16815260200190815260200160002081905550611f956001600360008573ffffffffffffffffffffffffffffffffffffffff1673ffffffffffffffffffffffffffffffffffffffff1681526020019081526020016000205461208a90919063ffffffff16565b600360008473ffffffffffffffffffffffffffffffffffffffff1673ffffffffffffffffffffffffffffffffffffffff16815260200190815260200160002081905550816001600083815260200190815260200160002060006101000a81548173ffffffffffffffffffffffffffffffffffffffff021916908373ffffffffffffffffffffffffffffffffffffffff160217905550808273ffffffffffffffffffffffffffffffffffffffff168473ffffffffffffffffffffffffffffffffffffffff167fddf252ad1be2c89b69c2b068fc378daa952ba7f163c4a11628f55a4df523b3ef60405160405180910390a4505050565b60008082840190508381101515156120a157600080fd5b8091505092915050565b600073ffffffffffffffffffffffffffffffffffffffff168273ffffffffffffffffffffffffffffffffffffffff16141515156120e757600080fd5b6120f081611d1e565b1515156120fc57600080fd5b816001600083815260200190815260200160002060006101000a81548173ffffffffffffffffffffffffffffffffffffffff021916908373ffffffffffffffffffffffffffffffffffffffff1602179055506121a16001600360008573ffffffffffffffffffffffffffffffffffffffff1673ffffffffffffffffffffffffffffffffffffffff1681526020019081526020016000205461208a90919063ffffffff16565b600360008473ffffffffffffffffffffffffffffffffffffffff1673ffffffffffffffffffffffffffffffffffffffff16815260200190815260200160002081905550808273ffffffffffffffffffffffffffffffffffffffff16600073ffffffffffffffffffffffffffffffffffffffff167fddf252ad1be2c89b69c2b068fc378daa952ba7f163c4a11628f55a4df523b3ef60405160405180910390a45050565b61224e8282612781565b5050565b80600960008481526020019081526020016000209080519060200190612279929190612821565b505050565b61228783611d1e565b151561229257600080fd5b6000825111156122b457805160018351011415156122af57600080fd5b6122c5565b805182511415156122c457600080fd5b5b60008090505b825181101561230c576122f483828151811015156122e557fe5b90602001906020020151611d1e565b15156122ff57600080fd5b80806001019150506122cb565b5081600a600085815260200190815260200160002090805190602001906123349291906128a1565b5060008151141561236e576064600b6000858152602001908152602001600020600085815260200190815260200160002081905550612477565b600080905060008090505b82518110156123ab57828181518110151561239057fe5b90602001906020020151820191508080600101915050612379565b50606481111515156123bc57600080fd5b8160008151811015156123cb57fe5b90602001906020020151600b60008681526020019081526020016000206000868152602001908152602001600020819055506000600190505b825181101561247457828181518110151561241b57fe5b90602001906020020151600b60008781526020019081526020016000206000866001850381518110151561244b57fe5b906020019060200201518152602001908152602001600020819055508080600101915050612404565b50505b505050565b600061249d8473ffffffffffffffffffffffffffffffffffffffff166127c1565b15156124ac5760019050612697565b60008473ffffffffffffffffffffffffffffffffffffffff1663150b7a02338887876040518563ffffffff167c0100000000000000000000000000000000000000000000000000000000028152600401808573ffffffffffffffffffffffffffffffffffffffff1673ffffffffffffffffffffffffffffffffffffffff1681526020018473ffffffffffffffffffffffffffffffffffffffff1673ffffffffffffffffffffffffffffffffffffffff16815260200183815260200180602001828103825283818151815260200191508051906020019080838360005b838110156125a3578082015181840152602081019050612588565b50505050905090810190601f1680156125d05780820380516001836020036101000a031916815260200191505b5095505050505050602060405180830381600087803b1580156125f257600080fd5b505af1158015612606573d6000803e3d6000fd5b505050506040513d602081101561261c57600080fd5b8101908080519060200190929190505050905063150b7a027c0100000000000000000000000000000000000000000000000000000000027bffffffffffffffffffffffffffffffffffffffffffffffffffffffff1916817bffffffffffffffffffffffffffffffffffffffffffffffffffffffff1916149150505b949350505050565b600073ffffffffffffffffffffffffffffffffffffffff166002600083815260200190815260200160002060009054906101000a900473ffffffffffffffffffffffffffffffffffffffff1673ffffffffffffffffffffffffffffffffffffffff1614151561275c5760006002600083815260200190815260200160002060006101000a81548173ffffffffffffffffffffffffffffffffffffffff021916908373ffffffffffffffffffffffffffffffffffffffff1602179055505b50565b600082821115151561277057600080fd5b600082840390508091505092915050565b61278a82611d1e565b151561279557600080fd5b806007600084815260200190815260200160002090805190602001906127bc929190612821565b505050565b600080823b905060008111915050919050565b828054828255906000526020600020908101928215612810579160200282015b8281111561280f5782358255916020019190600101906127f4565b5b50905061281d91906128ee565b5090565b828054600181600116156101000203166002900490600052602060002090601f016020900481019282601f1061286257805160ff1916838001178555612890565b82800160010185558215612890579182015b8281111561288f578251825591602001919060010190612874565b5b50905061289d91906128ee565b5090565b8280548282559060005260206000209081019282156128dd579160200282015b828111156128dc5782518255916020019190600101906128c1565b5b5090506128ea91906128ee565b5090565b61291091905b8082111561290c5760008160009055506001016128f4565b5090565b9056fea165627a7a7230582066d8758de1400647b6e9256c8c10253fed6090f12acd1e1c00c0fc75feab49200029",
  "source": "pragma solidity ^0.5.0;\nimport \"../../node_modules/openzeppelin-solidity/contracts/token/ERC721/ERC721.sol\";\nimport \"../../node_modules/openzeppelin-solidity/contracts/token/ERC721/ERC721Metadata.sol\";\nimport \"../../node_modules/openzeppelin-solidity/contracts/math/SafeMath.sol\";\n\ncontract TraceableToken is ERC721, ERC721Metadata {\n  using SafeMath for uint;\n\n  uint256 internal tokenId = 0;\n  \n  mapping (uint256 => string) public tokenName;\n  mapping (uint256 => uint256[]) public referencedTokenIds;\n  mapping (uint256 => mapping (uint256 => uint256)) public distributeRate;\n\n  event TransferEther(address indexed from, address indexed to, uint256 indexed amount);\n\n  constructor() public ERC721Metadata(\"GX Token\", \"GX\") {\n\n  }\n\n  function mint(string memory _ipfsHash, string memory _tokenName, uint256[] memory _referencedIds, uint256[] memory _distributeRate) public {\n    tokenId = tokenId.add(1);\n    super._mint(msg.sender, tokenId);\n    setTokenURI(tokenId, _ipfsHash);\n    setTokenName(tokenId, _tokenName);\n    setRereferencedTokenId(tokenId, _referencedIds, _distributeRate);\n  }\n\n  function setTokenURI(uint256 _tokenId, string memory _ipfsHash) internal {\n    super._setTokenURI(_tokenId, _ipfsHash);\n  }\n\n  function setTokenName(uint256 _tokenId, string memory _tokenName) internal {\n    tokenName[_tokenId] = _tokenName;\n  }\n\n\n  function getTokenName(uint256 _tokenId) external view returns(string memory) {\n    return tokenName[_tokenId];\n  }\n\n  function setRereferencedTokenId(uint256 _tokenId, uint256[] memory _referencedIds, uint256[] memory _distributeRate) internal {\n    require(_exists(_tokenId));\n    if ( _referencedIds.length > 0 ) {\n      require(_referencedIds.length + 1 == _distributeRate.length);\n    } else {\n      require(_referencedIds.length == _distributeRate.length);\n    }\n    for (uint i = 0; i < _referencedIds.length; i++) {\n      require(_exists(_referencedIds[i]));\n    }\n    referencedTokenIds[_tokenId] = _referencedIds;\n    //100 \n    if (_distributeRate.length == 0) {\n      distributeRate[_tokenId][_tokenId] = 100;\n    } else {\n      uint sum = 0;\n      for (uint j = 0; j < _distributeRate.length; j++) {\n        sum += _distributeRate[j];                        \n      }\n      require(sum <= 100);\n      distributeRate[_tokenId][_tokenId] = _distributeRate[0];\n      for (uint k = 1; k < _distributeRate.length; k++) {\n        distributeRate[_tokenId][_referencedIds[k-1]]= _distributeRate[k];\n      }\n    }\n  }\n\n  function updateRereferencedTokenId(uint256 _tokenId, uint256[] calldata _referencedIds, uint256[] calldata _distributeRate) external {\n    require(_exists(_tokenId));\n    if ( _referencedIds.length > 0 ) {\n      require(_referencedIds.length + 1 == _distributeRate.length);\n    } else {\n      require(_referencedIds.length == _distributeRate.length);\n    }\n    address _tokenOwner = address(uint160(ownerOf(_tokenId)));\n    require(_tokenOwner == msg.sender);\n    for (uint l = 0; l < _referencedIds.length; l++) {\n      require(_exists(_referencedIds[l]));\n    }\n    referencedTokenIds[_tokenId] = _referencedIds;\n    // 100 \n    uint sum = 0;\n    for (uint m = 0; m < _distributeRate.length; m++) {\n      sum += _distributeRate[m];                        \n    }\n    require(sum <= 100);\n    distributeRate[_tokenId][_tokenId] = _distributeRate[0];\n    for (uint n = 0; n < _distributeRate.length; n++) {\n      distributeRate[_tokenId][_referencedIds[n-1]]= _distributeRate[n];\n    }\n  }\n\n  function getRereferencedTokenId(uint256 _tokenId) public view returns (uint256[] memory) {\n    require(_exists(_tokenId));\n    uint256[] memory result = referencedTokenIds[_tokenId];\n    return result;\n  }\n\n  function sendEther(uint256 _tokenId) public payable {\n    uint256 amount = msg.value;\n    forLoop(_tokenId, amount);\n  }\n\n  function forLoop(uint256 _tokenId, uint256 _amount) public payable {\n    address payable _tokenOwner = address(uint160(ownerOf(_tokenId)));\n    uint256 _amountForOwner = distributeRate[_tokenId][_tokenId];\n    _tokenOwner.transfer(_amount.mul(_amountForOwner).div(100));\n    emit TransferEther(msg.sender, _tokenOwner, _amount.mul(_amountForOwner).div(100));\n    uint[] memory refIds = getRereferencedTokenId(_tokenId); \n    if (refIds.length > 0 ) {\n      for (uint i = 0; i < refIds.length; i++ ) {\n        uint rate = distributeRate[_tokenId][refIds[i]];\n        uint amountForLayer = _amount.mul(rate).div(100);\n        forLoop(refIds[i], amountForLayer);\n      }\n    }\n  }\n\n\n  function numberOfToken() external view returns(uint256) {\n    return tokenId;\n  }\n}",
  "sourcePath": "/Users/yosuke.aramaki/Desktop/erc721-proto/src/contracts/TraceableToken.sol",
  "compiler": {
    "name": "solc",
    "version": "0.5.0+commit.1d4f565a.Emscripten.clang"
  },
  "schemaVersion": "3.0.0",
  "updatedAt": "2019-07-21T02:49:40.647Z",
  "devdoc": {
    "methods": {
      "approve(address,uint256)": {
        "details": "Approves another address to transfer the given token ID The zero address indicates there is no approved address. There can only be one approved address per token at a given time. Can only be called by the token owner or an approved operator.",
        "params": {
          "to": "address to be approved for the given token ID",
          "tokenId": "uint256 ID of the token to be approved"
        }
      },
      "balanceOf(address)": {
        "details": "Gets the balance of the specified address",
        "params": {
          "owner": "address to query the balance of"
        },
        "return": "uint256 representing the amount owned by the passed address"
      },
      "getApproved(uint256)": {
        "details": "Gets the approved address for a token ID, or zero if no address set Reverts if the token ID does not exist.",
        "params": {
          "tokenId": "uint256 ID of the token to query the approval of"
        },
        "return": "address currently approved for the given token ID"
      },
      "isApprovedForAll(address,address)": {
        "details": "Tells whether an operator is approved by a given owner",
        "params": {
          "operator": "operator address which you want to query the approval of",
          "owner": "owner address which you want to query the approval of"
        },
        "return": "bool whether the given operator is approved by the given owner"
      },
      "name()": {
        "details": "Gets the token name",
        "return": "string representing the token name"
      },
      "ownerOf(uint256)": {
        "details": "Gets the owner of the specified token ID",
        "params": {
          "tokenId": "uint256 ID of the token to query the owner of"
        },
        "return": "owner address currently marked as the owner of the given token ID"
      },
      "safeTransferFrom(address,address,uint256)": {
        "details": "Safely transfers the ownership of a given token ID to another address If the target address is a contract, it must implement `onERC721Received`, which is called upon a safe transfer, and return the magic value `bytes4(keccak256(\"onERC721Received(address,address,uint256,bytes)\"))`; otherwise, the transfer is reverted.     * Requires the msg sender to be the owner, approved, or operator",
        "params": {
          "from": "current owner of the token",
          "to": "address to receive the ownership of the given token ID",
          "tokenId": "uint256 ID of the token to be transferred"
        }
      },
      "safeTransferFrom(address,address,uint256,bytes)": {
        "details": "Safely transfers the ownership of a given token ID to another address If the target address is a contract, it must implement `onERC721Received`, which is called upon a safe transfer, and return the magic value `bytes4(keccak256(\"onERC721Received(address,address,uint256,bytes)\"))`; otherwise, the transfer is reverted. Requires the msg sender to be the owner, approved, or operator",
        "params": {
          "_data": "bytes data to send along with a safe transfer check",
          "from": "current owner of the token",
          "to": "address to receive the ownership of the given token ID",
          "tokenId": "uint256 ID of the token to be transferred"
        }
      },
      "setApprovalForAll(address,bool)": {
        "details": "Sets or unsets the approval of a given operator An operator is allowed to transfer all tokens of the sender on their behalf",
        "params": {
          "approved": "representing the status of the approval to be set",
          "to": "operator address to set the approval"
        }
      },
      "supportsInterface(bytes4)": {
        "details": "implement supportsInterface(bytes4) using a lookup table"
      },
      "symbol()": {
        "details": "Gets the token symbol",
        "return": "string representing the token symbol"
      },
      "tokenURI(uint256)": {
        "details": "Returns an URI for a given token ID Throws if the token ID does not exist. May return an empty string.",
        "params": {
          "tokenId": "uint256 ID of the token to query"
        }
      },
      "transferFrom(address,address,uint256)": {
        "details": "Transfers the ownership of a given token ID to another address Usage of this method is discouraged, use `safeTransferFrom` whenever possible Requires the msg sender to be the owner, approved, or operator",
        "params": {
          "from": "current owner of the token",
          "to": "address to receive the ownership of the given token ID",
          "tokenId": "uint256 ID of the token to be transferred"
        }
      }
    }
  },
  "userdoc": {
    "methods": {}
  }
}