{
  "contractName": "PlaceList",
  "abi": [
    {
      "constant": true,
      "inputs": [],
      "name": "checkinCount",
      "outputs": [
        {
          "name": "",
          "type": "uint256"
        }
      ],
      "payable": false,
      "stateMutability": "view",
      "type": "function"
    },
    {
      "constant": true,
      "inputs": [],
      "name": "placeCount",
      "outputs": [
        {
          "name": "",
          "type": "uint256"
        }
      ],
      "payable": false,
      "stateMutability": "view",
      "type": "function"
    },
    {
      "constant": true,
      "inputs": [
        {
          "name": "",
          "type": "uint256"
        }
      ],
      "name": "places",
      "outputs": [
        {
          "name": "id",
          "type": "uint256"
        },
        {
          "name": "owner",
          "type": "address"
        },
        {
          "name": "name",
          "type": "string"
        },
        {
          "name": "ipfsHash",
          "type": "string"
        },
        {
          "name": "latitude",
          "type": "string"
        },
        {
          "name": "longitude",
          "type": "string"
        }
      ],
      "payable": false,
      "stateMutability": "view",
      "type": "function"
    },
    {
      "inputs": [],
      "payable": false,
      "stateMutability": "nonpayable",
      "type": "constructor"
    },
    {
      "anonymous": false,
      "inputs": [
        {
          "indexed": false,
          "name": "_id",
          "type": "uint256"
        },
        {
          "indexed": true,
          "name": "_owner",
          "type": "address"
        },
        {
          "indexed": false,
          "name": "_name",
          "type": "string"
        },
        {
          "indexed": false,
          "name": "_ipfsHash",
          "type": "string"
        },
        {
          "indexed": false,
          "name": "_latitude",
          "type": "string"
        },
        {
          "indexed": false,
          "name": "_longitude",
          "type": "string"
        }
      ],
      "name": "CreatePlace",
      "type": "event"
    },
    {
      "anonymous": false,
      "inputs": [
        {
          "indexed": false,
          "name": "_placeid",
          "type": "uint256"
        },
        {
          "indexed": false,
          "name": "_user",
          "type": "address"
        },
        {
          "indexed": false,
          "name": "_checkintime",
          "type": "uint256"
        },
        {
          "indexed": false,
          "name": "_latitude",
          "type": "string"
        },
        {
          "indexed": false,
          "name": "_longitude",
          "type": "string"
        }
      ],
      "name": "CheckIn",
      "type": "event"
    },
    {
      "constant": true,
      "inputs": [
        {
          "name": "_from",
          "type": "address"
        }
      ],
      "name": "getAdmin",
      "outputs": [
        {
          "name": "",
          "type": "address"
        }
      ],
      "payable": false,
      "stateMutability": "view",
      "type": "function"
    },
    {
      "constant": false,
      "inputs": [
        {
          "name": "_name",
          "type": "string"
        },
        {
          "name": "_ipfsHash",
          "type": "string"
        },
        {
          "name": "_latitude",
          "type": "string"
        },
        {
          "name": "_longitude",
          "type": "string"
        }
      ],
      "name": "createPlace",
      "outputs": [],
      "payable": false,
      "stateMutability": "nonpayable",
      "type": "function"
    },
    {
      "constant": false,
      "inputs": [
        {
          "name": "placeid",
          "type": "uint256"
        },
        {
          "name": "_latitude",
          "type": "string"
        },
        {
          "name": "_longitude",
          "type": "string"
        }
      ],
      "name": "userCheckIn",
      "outputs": [],
      "payable": false,
      "stateMutability": "nonpayable",
      "type": "function"
    },
    {
      "constant": true,
      "inputs": [],
      "name": "getNumberOfCheckin",
      "outputs": [
        {
          "name": "",
          "type": "uint256"
        }
      ],
      "payable": false,
      "stateMutability": "view",
      "type": "function"
    },
    {
      "constant": true,
      "inputs": [],
      "name": "getNumberOfPlace",
      "outputs": [
        {
          "name": "",
          "type": "uint256"
        }
      ],
      "payable": false,
      "stateMutability": "view",
      "type": "function"
    },
    {
      "constant": true,
      "inputs": [
        {
          "name": "_id",
          "type": "uint256"
        },
        {
          "name": "_user",
          "type": "address"
        }
      ],
      "name": "getCheckinListForUser",
      "outputs": [
        {
          "components": [
            {
              "name": "placeid",
              "type": "uint256"
            },
            {
              "name": "user",
              "type": "address"
            },
            {
              "name": "checkintime",
              "type": "uint256"
            },
            {
              "name": "latitude",
              "type": "string"
            },
            {
              "name": "longitude",
              "type": "string"
            }
          ],
          "name": "",
          "type": "tuple"
        }
      ],
      "payable": false,
      "stateMutability": "view",
      "type": "function"
    },
    {
      "constant": true,
      "inputs": [
        {
          "name": "_id",
          "type": "uint256"
        },
        {
          "name": "_placeid",
          "type": "uint256"
        }
      ],
      "name": "getCheckinListForOwner",
      "outputs": [
        {
          "components": [
            {
              "name": "placeid",
              "type": "uint256"
            },
            {
              "name": "user",
              "type": "address"
            },
            {
              "name": "checkintime",
              "type": "uint256"
            },
            {
              "name": "latitude",
              "type": "string"
            },
            {
              "name": "longitude",
              "type": "string"
            }
          ],
          "name": "",
          "type": "tuple"
        }
      ],
      "payable": false,
      "stateMutability": "view",
      "type": "function"
    },
    {
      "constant": true,
      "inputs": [
        {
          "name": "_id",
          "type": "uint256"
        },
        {
          "name": "_user",
          "type": "address"
        }
      ],
      "name": "getAllCheckinList",
      "outputs": [
        {
          "components": [
            {
              "name": "placeid",
              "type": "uint256"
            },
            {
              "name": "user",
              "type": "address"
            },
            {
              "name": "checkintime",
              "type": "uint256"
            },
            {
              "name": "latitude",
              "type": "string"
            },
            {
              "name": "longitude",
              "type": "string"
            }
          ],
          "name": "",
          "type": "tuple"
        }
      ],
      "payable": false,
      "stateMutability": "view",
      "type": "function"
    },
    {
      "constant": true,
      "inputs": [
        {
          "name": "_placeid",
          "type": "uint256"
        }
      ],
      "name": "getNumberOfVisiters",
      "outputs": [
        {
          "name": "",
          "type": "uint256"
        }
      ],
      "payable": false,
      "stateMutability": "view",
      "type": "function"
    }
  ],
  "bytecode": "0x60806040526000805560006001553480156200001a57600080fd5b5033600260006101000a81548173ffffffffffffffffffffffffffffffffffffffff021916908373ffffffffffffffffffffffffffffffffffffffff160217905550600360c06040519081016040528060018152602001736322ea177d669ff5674412b49fce7eb05e8d167e73ffffffffffffffffffffffffffffffffffffffff1681526020016040805190810160405280600781526020017f4d79506c616365000000000000000000000000000000000000000000000000008152508152602001606060405190810160405280602e81526020017f516d546a7a597231346e31325941423462454d6a3266454b634e4c334732544281526020017f74424b4e7846435265324278746700000000000000000000000000000000000081525081526020016040805190810160405280601281526020017f33352e373337393530303030303030303035000000000000000000000000000081525081526020016040805190810160405280600b81526020017f3133392e37343030303638000000000000000000000000000000000000000000815250815250908060018154018082558091505090600182039060005260206000209060060201600090919290919091506000820151816000015560208201518160010160006101000a81548173ffffffffffffffffffffffffffffffffffffffff021916908373ffffffffffffffffffffffffffffffffffffffff16021790555060408201518160020190805190602001906200024c929190620002c4565b5060608201518160030190805190602001906200026b929190620002c4565b5060808201518160040190805190602001906200028a929190620002c4565b5060a0820151816005019080519060200190620002a9929190620002c4565b50505050600080815480929190600101919050555062000373565b828054600181600116156101000203166002900490600052602060002090601f016020900481019282601f106200030757805160ff191683800117855562000338565b8280016001018555821562000338579182015b82811115620003375782518255916020019190600101906200031a565b5b5090506200034791906200034b565b5090565b6200037091905b808211156200036c57600081600090555060010162000352565b5090565b90565b6117ca80620003836000396000f3006080604052600436106100ba576000357c0100000000000000000000000000000000000000000000000000000000900463ffffffff16806310bfa1fe146100bf5780635e98c1c8146100fc57806364efb22b146101275780636c245f2e1461016457806371d2fa141461018d57806374475319146101ca5780638778658a146101f557806390f4d96614610220578063933276c91461024b578063b462d16014610274578063e3ad42a4146102b1578063e557bb4e146102ee575b600080fd5b3480156100cb57600080fd5b506100e660048036036100e191908101906112d7565b610330565b6040516100f391906114f0565b60405180910390f35b34801561010857600080fd5b50610111610573565b60405161011e9190611512565b60405180910390f35b34801561013357600080fd5b5061014e600480360361014991908101906111c2565b610580565b60405161015b91906114d5565b60405180910390f35b34801561017057600080fd5b5061018b60048036036101869190810190611313565b6105ac565b005b34801561019957600080fd5b506101b460048036036101af91908101906112d7565b6106f3565b6040516101c191906114f0565b60405180910390f35b3480156101d657600080fd5b506101df610954565b6040516101ec9190611512565b60405180910390f35b34801561020157600080fd5b5061020a61095a565b6040516102179190611512565b60405180910390f35b34801561022c57600080fd5b50610235610960565b6040516102429190611512565b60405180910390f35b34801561025757600080fd5b50610272600480360361026d91908101906111eb565b61096d565b005b34801561028057600080fd5b5061029b600480360361029691908101906112ae565b610b17565b6040516102a89190611512565b60405180910390f35b3480156102bd57600080fd5b506102d860048036036102d39190810190611392565b610b79565b6040516102e591906114f0565b60405180910390f35b3480156102fa57600080fd5b50610315600480360361031091908101906112ae565b610d8e565b6040516103279695949392919061152d565b60405180910390f35b610338611059565b600260009054906101000a900473ffffffffffffffffffffffffffffffffffffffff1673ffffffffffffffffffffffffffffffffffffffff168273ffffffffffffffffffffffffffffffffffffffff1614151561039457600080fd5b6004838154811015156103a357fe5b906000526020600020906005020160a06040519081016040529081600082015481526020016001820160009054906101000a900473ffffffffffffffffffffffffffffffffffffffff1673ffffffffffffffffffffffffffffffffffffffff1673ffffffffffffffffffffffffffffffffffffffff16815260200160028201548152602001600382018054600181600116156101000203166002900480601f0160208091040260200160405190810160405280929190818152602001828054600181600116156101000203166002900480156104c05780601f10610495576101008083540402835291602001916104c0565b820191906000526020600020905b8154815290600101906020018083116104a357829003601f168201915b50505050508152602001600482018054600181600116156101000203166002900480601f0160208091040260200160405190810160405280929190818152602001828054600181600116156101000203166002900480156105625780601f1061053757610100808354040283529160200191610562565b820191906000526020600020905b81548152906001019060200180831161054557829003601f168201915b505050505081525050905092915050565b6000600480549050905090565b6000600260009054906101000a900473ffffffffffffffffffffffffffffffffffffffff169050919050565b600460a0604051908101604052808581526020013373ffffffffffffffffffffffffffffffffffffffff16815260200142815260200184815260200183815250908060018154018082558091505090600182039060005260206000209060050201600090919290919091506000820151816000015560208201518160010160006101000a81548173ffffffffffffffffffffffffffffffffffffffff021916908373ffffffffffffffffffffffffffffffffffffffff16021790555060408201518160020155606082015181600301908051906020019061068e92919061109f565b5060808201518160040190805190602001906106ab92919061109f565b505050507f27aa11a6c848f6dddf5526f3bcb579a700feca1b385f88ea1eeebabbbcafb90e83334285856040516106e69594939291906115aa565b60405180910390a1505050565b6106fb611059565b8173ffffffffffffffffffffffffffffffffffffffff1660048481548110151561072157fe5b906000526020600020906005020160010160009054906101000a900473ffffffffffffffffffffffffffffffffffffffff1673ffffffffffffffffffffffffffffffffffffffff16141561094d5760048381548110151561077e57fe5b906000526020600020906005020160a06040519081016040529081600082015481526020016001820160009054906101000a900473ffffffffffffffffffffffffffffffffffffffff1673ffffffffffffffffffffffffffffffffffffffff1673ffffffffffffffffffffffffffffffffffffffff16815260200160028201548152602001600382018054600181600116156101000203166002900480601f01602080910402602001604051908101604052809291908181526020018280546001816001161561010002031660029004801561089b5780601f106108705761010080835404028352916020019161089b565b820191906000526020600020905b81548152906001019060200180831161087e57829003601f168201915b50505050508152602001600482018054600181600116156101000203166002900480601f01602080910402602001604051908101604052809291908181526020018280546001816001161561010002031660029004801561093d5780601f106109125761010080835404028352916020019161093d565b820191906000526020600020905b81548152906001019060200180831161092057829003601f168201915b505050505081525050905061094e565b5b92915050565b60015481565b60005481565b6000600380549050905090565b6000808154809291906001019190505550600360c06040519081016040528060005481526020013373ffffffffffffffffffffffffffffffffffffffff16815260200186815260200185815260200184815260200183815250908060018154018082558091505090600182039060005260206000209060060201600090919290919091506000820151816000015560208201518160010160006101000a81548173ffffffffffffffffffffffffffffffffffffffff021916908373ffffffffffffffffffffffffffffffffffffffff1602179055506040820151816002019080519060200190610a5e92919061109f565b506060820151816003019080519060200190610a7b92919061109f565b506080820151816004019080519060200190610a9892919061109f565b5060a0820151816005019080519060200190610ab592919061109f565b505050503373ffffffffffffffffffffffffffffffffffffffff167f382e3313f318a4a23f81270639db93737cac66d5093f5c953928f54fa77e523660005486868686604051610b0995949392919061160b565b60405180910390a250505050565b6000806000809150600090505b600480549050811015610b6f5783600482815481101515610b4157fe5b9060005260206000209060050201600001541415610b625781806001019250505b8080600101915050610b24565b8192505050919050565b610b81611059565b81600484815481101515610b9157fe5b9060005260206000209060050201600001541415610d8757600483815481101515610bb857fe5b906000526020600020906005020160a06040519081016040529081600082015481526020016001820160009054906101000a900473ffffffffffffffffffffffffffffffffffffffff1673ffffffffffffffffffffffffffffffffffffffff1673ffffffffffffffffffffffffffffffffffffffff16815260200160028201548152602001600382018054600181600116156101000203166002900480601f016020809104026020016040519081016040528092919081815260200182805460018160011615610100020316600290048015610cd55780601f10610caa57610100808354040283529160200191610cd5565b820191906000526020600020905b815481529060010190602001808311610cb857829003601f168201915b50505050508152602001600482018054600181600116156101000203166002900480601f016020809104026020016040519081016040528092919081815260200182805460018160011615610100020316600290048015610d775780601f10610d4c57610100808354040283529160200191610d77565b820191906000526020600020905b815481529060010190602001808311610d5a57829003601f168201915b5050505050815250509050610d88565b5b92915050565b600381815481101515610d9d57fe5b90600052602060002090600602016000915090508060000154908060010160009054906101000a900473ffffffffffffffffffffffffffffffffffffffff1690806002018054600181600116156101000203166002900480601f016020809104026020016040519081016040528092919081815260200182805460018160011615610100020316600290048015610e755780601f10610e4a57610100808354040283529160200191610e75565b820191906000526020600020905b815481529060010190602001808311610e5857829003601f168201915b505050505090806003018054600181600116156101000203166002900480601f016020809104026020016040519081016040528092919081815260200182805460018160011615610100020316600290048015610f135780601f10610ee857610100808354040283529160200191610f13565b820191906000526020600020905b815481529060010190602001808311610ef657829003601f168201915b505050505090806004018054600181600116156101000203166002900480601f016020809104026020016040519081016040528092919081815260200182805460018160011615610100020316600290048015610fb15780601f10610f8657610100808354040283529160200191610fb1565b820191906000526020600020905b815481529060010190602001808311610f9457829003601f168201915b505050505090806005018054600181600116156101000203166002900480601f01602080910402602001604051908101604052809291908181526020018280546001816001161561010002031660029004801561104f5780601f106110245761010080835404028352916020019161104f565b820191906000526020600020905b81548152906001019060200180831161103257829003601f168201915b5050505050905086565b60a06040519081016040528060008152602001600073ffffffffffffffffffffffffffffffffffffffff1681526020016000815260200160608152602001606081525090565b828054600181600116156101000203166002900490600052602060002090601f016020900481019282601f106110e057805160ff191683800117855561110e565b8280016001018555821561110e579182015b8281111561110d5782518255916020019190600101906110f2565b5b50905061111b919061111f565b5090565b61114191905b8082111561113d576000816000905550600101611125565b5090565b90565b60006111508235611713565b905092915050565b600082601f830112151561116b57600080fd5b813561117e611179826116a7565b61167a565b9150808252602083016020830185838301111561119a57600080fd5b6111a583828461173d565b50505092915050565b60006111ba8235611733565b905092915050565b6000602082840312156111d457600080fd5b60006111e284828501611144565b91505092915050565b6000806000806080858703121561120157600080fd5b600085013567ffffffffffffffff81111561121b57600080fd5b61122787828801611158565b945050602085013567ffffffffffffffff81111561124457600080fd5b61125087828801611158565b935050604085013567ffffffffffffffff81111561126d57600080fd5b61127987828801611158565b925050606085013567ffffffffffffffff81111561129657600080fd5b6112a287828801611158565b91505092959194509250565b6000602082840312156112c057600080fd5b60006112ce848285016111ae565b91505092915050565b600080604083850312156112ea57600080fd5b60006112f8858286016111ae565b925050602061130985828601611144565b9150509250929050565b60008060006060848603121561132857600080fd5b6000611336868287016111ae565b935050602084013567ffffffffffffffff81111561135357600080fd5b61135f86828701611158565b925050604084013567ffffffffffffffff81111561137c57600080fd5b61138886828701611158565b9150509250925092565b600080604083850312156113a557600080fd5b60006113b3858286016111ae565b92505060206113c4858286016111ae565b9150509250929050565b6113d7816116e9565b82525050565b60006113e8826116de565b8084526113fc81602086016020860161174c565b6114058161177f565b602085010191505092915050565b600061141e826116d3565b80845261143281602086016020860161174c565b61143b8161177f565b602085010191505092915050565b600060a08301600083015161146160008601826114c6565b50602083015161147460208601826113ce565b50604083015161148760408601826114c6565b506060830151848203606086015261149f8282611413565b915050608083015184820360808601526114b98282611413565b9150508091505092915050565b6114cf81611709565b82525050565b60006020820190506114ea60008301846113ce565b92915050565b6000602082019050818103600083015261150a8184611449565b905092915050565b600060208201905061152760008301846114c6565b92915050565b600060c08201905061154260008301896114c6565b61154f60208301886113ce565b81810360408301526115618187611413565b905081810360608301526115758186611413565b905081810360808301526115898185611413565b905081810360a083015261159d8184611413565b9050979650505050505050565b600060a0820190506115bf60008301886114c6565b6115cc60208301876113ce565b6115d960408301866114c6565b81810360608301526115eb81856113dd565b905081810360808301526115ff81846113dd565b90509695505050505050565b600060a08201905061162060008301886114c6565b818103602083015261163281876113dd565b9050818103604083015261164681866113dd565b9050818103606083015261165a81856113dd565b9050818103608083015261166e81846113dd565b90509695505050505050565b6000604051905081810181811067ffffffffffffffff8211171561169d57600080fd5b8060405250919050565b600067ffffffffffffffff8211156116be57600080fd5b601f19601f8301169050602081019050919050565b600081519050919050565b600081519050919050565b600073ffffffffffffffffffffffffffffffffffffffff82169050919050565b6000819050919050565b600073ffffffffffffffffffffffffffffffffffffffff82169050919050565b6000819050919050565b82818337600083830152505050565b60005b8381101561176a57808201518184015260208101905061174f565b83811115611779576000848401525b50505050565b6000601f19601f83011690509190505600a265627a7a72305820e9faccefbab782dd0434542ec2ba11781953c55a3160e6ed0c7ca5c4f96c70646c6578706572696d656e74616cf50037",
  "source": "pragma solidity >=0.4.21 <0.6.0;\npragma experimental ABIEncoderV2;\n\ncontract PlaceList {\n  uint public placeCount = 0;\n  uint public checkinCount = 0;\n  // ? publicで良いのか？ \n  address internal admin;\n\n  struct Place {\n    uint id;\n    address owner;\n    string name;\n    string ipfsHash;\n    string latitude;\n    string longitude;\n  }\n  \n  struct Checkin {\n    uint placeid;\n    address user;\n    uint checkintime;\n    string latitude;\n    string longitude;\n  }\n\n  //mapping(uint => Place) public places;\n  //mapping(address => Checkin) public checkinListForUser;\n  Place[] public places;\n  Checkin[] internal checkins;\n  //mapping(address => uint) public checkinListForUser; \n\n  event CreatePlace(\n    uint _id,\n    address indexed _owner, \n    string _name, \n    string _ipfsHash,\n    string _latitude, \n    string _longitude \n  );\n\n  event CheckIn(\n    uint _placeid,\n    address _user,\n    uint _checkintime,\n    string _latitude,\n    string _longitude\n  );\n\n  constructor() public {\n    admin = msg.sender;\n    places.push(Place(1, 0x6322eA177D669Ff5674412B49FcE7EB05E8D167E, \"MyPlace\", \"QmTjzYr14n12YAB4bEMj2fEKcNL3G2TBtBKNxFCRe2Bxtg\", \"35.737950000000005\", \"139.7400068\" ));\n    placeCount++;\n  }\n\n  function getAdmin(address _from) external view returns(address) {\n    //require(admin == _from);\n    return admin;\n  }\n\n  function createPlace(string memory _name, string memory _ipfsHash, string memory _latitude, string memory _longitude) public {\n    placeCount ++;\n    // places[placeCount] = Place(placeCount, msg.sender, _name, _ipfsHash, _latitude, _longitude);\n    places.push(Place(placeCount, msg.sender, _name, _ipfsHash, _latitude, _longitude));\n    emit CreatePlace(placeCount, msg.sender, _name, _ipfsHash, _latitude, _longitude);\n  }\n\n  function userCheckIn(uint placeid, string memory _latitude, string memory _longitude) public {\n    //checkinListForUser[msg.sender] = Checkin(placeid, msg.sender, now, _latitude, _longitude);\n    checkins.push(Checkin(placeid, msg.sender, now, _latitude, _longitude));\n    //checkinCount ++;\n    emit CheckIn(placeid, msg.sender, now, _latitude, _longitude);\n  } \n\n  function getNumberOfCheckin() external view returns (uint) {\n    return checkins.length;\n  }\n\n  function getNumberOfPlace() external view returns (uint) {\n    return places.length;\n  }\n\n    function getCheckinListForUser(uint _id, address _user) external view returns(Checkin memory) {\n    if (checkins[_id].user == _user) {\n      return checkins[_id]; \n    }\n  }\n\n  function getCheckinListForOwner(uint _id, uint _placeid) external view returns(Checkin memory) {\n    if (checkins[_id].placeid == _placeid) {\n      return checkins[_id]; \n    }\n  }\n\n  function getAllCheckinList(uint _id, address _user) external view returns(Checkin memory) {\n    require(_user == admin);\n    return checkins[_id]; \n  }\n\n  function getNumberOfVisiters(uint _placeid) public view returns(uint) {\n    uint counter = 0;\n    for (uint i = 0; i < checkins.length; i++) {\n      if (checkins[i].placeid == _placeid) {\n        counter++;\n      }\n    }\n    return counter;\n  }\n}",
  "sourcePath": "/Users/yosuke.aramaki/Desktop/MyApps/eth_todo_react/contracts/PlaceList.sol",
  "compiler": {
    "name": "solc",
    "version": "0.4.25+commit.59dbf8f1.Emscripten.clang"
  },
  "schemaVersion": "2.0.2",
  "updatedAt": "2019-05-21T02:48:28.158Z"
}