{
  "contractName": "PlaceList",
  "abi": [
    {
      "constant": true,
      "inputs": [],
      "name": "userCount",
      "outputs": [
        {
          "name": "",
          "type": "uint256"
        }
      ],
      "payable": false,
      "stateMutability": "view",
      "type": "function"
    },
    {
      "constant": true,
      "inputs": [
        {
          "name": "",
          "type": "uint256"
        }
      ],
      "name": "checkins",
      "outputs": [
        {
          "name": "placeid",
          "type": "uint256"
        },
        {
          "name": "user",
          "type": "address"
        },
        {
          "name": "checkintime",
          "type": "uint256"
        },
        {
          "name": "latitude",
          "type": "string"
        },
        {
          "name": "longitude",
          "type": "string"
        }
      ],
      "payable": false,
      "stateMutability": "view",
      "type": "function"
    },
    {
      "constant": true,
      "inputs": [],
      "name": "placeCount",
      "outputs": [
        {
          "name": "",
          "type": "uint256"
        }
      ],
      "payable": false,
      "stateMutability": "view",
      "type": "function"
    },
    {
      "constant": true,
      "inputs": [
        {
          "name": "",
          "type": "uint256"
        }
      ],
      "name": "places",
      "outputs": [
        {
          "name": "id",
          "type": "uint256"
        },
        {
          "name": "owner",
          "type": "address"
        },
        {
          "name": "name",
          "type": "string"
        },
        {
          "name": "ipfsHash",
          "type": "string"
        },
        {
          "name": "latitude",
          "type": "string"
        },
        {
          "name": "longitude",
          "type": "string"
        }
      ],
      "payable": false,
      "stateMutability": "view",
      "type": "function"
    },
    {
      "constant": true,
      "inputs": [],
      "name": "admin",
      "outputs": [
        {
          "name": "",
          "type": "address"
        }
      ],
      "payable": false,
      "stateMutability": "view",
      "type": "function"
    },
    {
      "inputs": [],
      "payable": false,
      "stateMutability": "nonpayable",
      "type": "constructor"
    },
    {
      "anonymous": false,
      "inputs": [
        {
          "indexed": false,
          "name": "_id",
          "type": "uint256"
        },
        {
          "indexed": true,
          "name": "_owner",
          "type": "address"
        },
        {
          "indexed": false,
          "name": "_name",
          "type": "string"
        },
        {
          "indexed": false,
          "name": "_latitude",
          "type": "string"
        },
        {
          "indexed": false,
          "name": "_longitude",
          "type": "string"
        }
      ],
      "name": "CreatePlace",
      "type": "event"
    },
    {
      "anonymous": false,
      "inputs": [
        {
          "indexed": false,
          "name": "_placeid",
          "type": "uint256"
        },
        {
          "indexed": false,
          "name": "_user",
          "type": "address"
        },
        {
          "indexed": false,
          "name": "_checkintime",
          "type": "uint256"
        },
        {
          "indexed": false,
          "name": "_latitude",
          "type": "string"
        },
        {
          "indexed": false,
          "name": "_longitude",
          "type": "string"
        }
      ],
      "name": "UserCheckIn",
      "type": "event"
    },
    {
      "constant": false,
      "inputs": [
        {
          "name": "_name",
          "type": "string"
        },
        {
          "name": "_ipfsHash",
          "type": "string"
        },
        {
          "name": "_latitude",
          "type": "string"
        },
        {
          "name": "_longitude",
          "type": "string"
        }
      ],
      "name": "createPlace",
      "outputs": [],
      "payable": false,
      "stateMutability": "nonpayable",
      "type": "function"
    },
    {
      "constant": false,
      "inputs": [
        {
          "name": "placeid",
          "type": "uint256"
        },
        {
          "name": "_latitude",
          "type": "string"
        },
        {
          "name": "_longitude",
          "type": "string"
        }
      ],
      "name": "userCheckIn",
      "outputs": [],
      "payable": false,
      "stateMutability": "nonpayable",
      "type": "function"
    }
  ],
  "bytecode": "0x608060405260008055600060015534801561001957600080fd5b5033600260006101000a81548173ffffffffffffffffffffffffffffffffffffffff021916908373ffffffffffffffffffffffffffffffffffffffff160217905550610e208061006a6000396000f300608060405260043610610083576000357c0100000000000000000000000000000000000000000000000000000000900463ffffffff16806307973ccf1461008857806342de9c09146100b35780636c245f2e146102065780638778658a146102bf578063933276c9146102ea578063e557bb4e14610425578063f851a44014610649575b600080fd5b34801561009457600080fd5b5061009d6106a0565b6040518082815260200191505060405180910390f35b3480156100bf57600080fd5b506100de600480360381019080803590602001909291905050506106a6565b604051808681526020018573ffffffffffffffffffffffffffffffffffffffff1673ffffffffffffffffffffffffffffffffffffffff1681526020018481526020018060200180602001838103835285818151815260200191508051906020019080838360005b83811015610160578082015181840152602081019050610145565b50505050905090810190601f16801561018d5780820380516001836020036101000a031916815260200191505b50838103825284818151815260200191508051906020019080838360005b838110156101c65780820151818401526020810190506101ab565b50505050905090810190601f1680156101f35780820380516001836020036101000a031916815260200191505b5097505050505050505060405180910390f35b34801561021257600080fd5b506102bd60048036038101908080359060200190929190803590602001908201803590602001908080601f0160208091040260200160405190810160405280939291908181526020018383808284378201915050505050509192919290803590602001908201803590602001908080601f016020809104026020016040519081016040528093929190818152602001838380828437820191505050505050919291929050505061082c565b005b3480156102cb57600080fd5b506102d461092e565b6040518082815260200191505060405180910390f35b3480156102f657600080fd5b50610423600480360381019080803590602001908201803590602001908080601f0160208091040260200160405190810160405280939291908181526020018383808284378201915050505050509192919290803590602001908201803590602001908080601f0160208091040260200160405190810160405280939291908181526020018383808284378201915050505050509192919290803590602001908201803590602001908080601f0160208091040260200160405190810160405280939291908181526020018383808284378201915050505050509192919290803590602001908201803590602001908080601f0160208091040260200160405190810160405280939291908181526020018383808284378201915050505050509192919290505050610934565b005b34801561043157600080fd5b5061045060048036038101908080359060200190929190505050610a6d565b604051808781526020018673ffffffffffffffffffffffffffffffffffffffff1673ffffffffffffffffffffffffffffffffffffffff16815260200180602001806020018060200180602001858103855289818151815260200191508051906020019080838360005b838110156104d45780820151818401526020810190506104b9565b50505050905090810190601f1680156105015780820380516001836020036101000a031916815260200191505b50858103845288818151815260200191508051906020019080838360005b8381101561053a57808201518184015260208101905061051f565b50505050905090810190601f1680156105675780820380516001836020036101000a031916815260200191505b50858103835287818151815260200191508051906020019080838360005b838110156105a0578082015181840152602081019050610585565b50505050905090810190601f1680156105cd5780820380516001836020036101000a031916815260200191505b50858103825286818151815260200191508051906020019080838360005b838110156106065780820151818401526020810190506105eb565b50505050905090810190601f1680156106335780820380516001836020036101000a031916815260200191505b509a505050505050505050505060405180910390f35b34801561065557600080fd5b5061065e610d29565b604051808273ffffffffffffffffffffffffffffffffffffffff1673ffffffffffffffffffffffffffffffffffffffff16815260200191505060405180910390f35b60015481565b60046020528060005260406000206000915090508060000154908060010160009054906101000a900473ffffffffffffffffffffffffffffffffffffffff1690806002015490806003018054600181600116156101000203166002900480601f0160208091040260200160405190810160405280929190818152602001828054600181600116156101000203166002900480156107845780601f1061075957610100808354040283529160200191610784565b820191906000526020600020905b81548152906001019060200180831161076757829003601f168201915b505050505090806004018054600181600116156101000203166002900480601f0160208091040260200160405190810160405280929190818152602001828054600181600116156101000203166002900480156108225780601f106107f757610100808354040283529160200191610822565b820191906000526020600020905b81548152906001019060200180831161080557829003601f168201915b5050505050905085565b60016000815480929190600101919050555060a0604051908101604052808481526020013373ffffffffffffffffffffffffffffffffffffffff168152602001428152602001838152602001828152506004600060015481526020019081526020016000206000820151816000015560208201518160010160006101000a81548173ffffffffffffffffffffffffffffffffffffffff021916908373ffffffffffffffffffffffffffffffffffffffff160217905550604082015181600201556060820151816003019080519060200190610908929190610d4f565b506080820151816004019080519060200190610925929190610d4f565b50905050505050565b60005481565b600080815480929190600101919050555060c06040519081016040528060005481526020013373ffffffffffffffffffffffffffffffffffffffff1681526020018581526020018481526020018381526020018281525060036000805481526020019081526020016000206000820151816000015560208201518160010160006101000a81548173ffffffffffffffffffffffffffffffffffffffff021916908373ffffffffffffffffffffffffffffffffffffffff1602179055506040820151816002019080519060200190610a0c929190610d4f565b506060820151816003019080519060200190610a29929190610d4f565b506080820151816004019080519060200190610a46929190610d4f565b5060a0820151816005019080519060200190610a63929190610d4f565b5090505050505050565b60036020528060005260406000206000915090508060000154908060010160009054906101000a900473ffffffffffffffffffffffffffffffffffffffff1690806002018054600181600116156101000203166002900480601f016020809104026020016040519081016040528092919081815260200182805460018160011615610100020316600290048015610b455780601f10610b1a57610100808354040283529160200191610b45565b820191906000526020600020905b815481529060010190602001808311610b2857829003601f168201915b505050505090806003018054600181600116156101000203166002900480601f016020809104026020016040519081016040528092919081815260200182805460018160011615610100020316600290048015610be35780601f10610bb857610100808354040283529160200191610be3565b820191906000526020600020905b815481529060010190602001808311610bc657829003601f168201915b505050505090806004018054600181600116156101000203166002900480601f016020809104026020016040519081016040528092919081815260200182805460018160011615610100020316600290048015610c815780601f10610c5657610100808354040283529160200191610c81565b820191906000526020600020905b815481529060010190602001808311610c6457829003601f168201915b505050505090806005018054600181600116156101000203166002900480601f016020809104026020016040519081016040528092919081815260200182805460018160011615610100020316600290048015610d1f5780601f10610cf457610100808354040283529160200191610d1f565b820191906000526020600020905b815481529060010190602001808311610d0257829003601f168201915b5050505050905086565b600260009054906101000a900473ffffffffffffffffffffffffffffffffffffffff1681565b828054600181600116156101000203166002900490600052602060002090601f016020900481019282601f10610d9057805160ff1916838001178555610dbe565b82800160010185558215610dbe579182015b82811115610dbd578251825591602001919060010190610da2565b5b509050610dcb9190610dcf565b5090565b610df191905b80821115610ded576000816000905550600101610dd5565b5090565b905600a165627a7a723058208afc932fd377d27b24b37e14683c9321263060e0e2a4cb7c1abc9168867374b00029",
  "source": "pragma solidity >=0.4.21 <0.6.0;\ncontract PlaceList {\n  uint public placeCount = 0;\n  uint public userCount = 0;\n  // ? publicで良いのか？ \n  address public admin;\n\n  struct Place {\n    uint id;\n    address owner;\n    string name;\n    string ipfsHash;\n    string latitude;\n    string longitude;\n  }\n  \n  struct Checkin {\n    uint placeid;\n    address user;\n    uint checkintime;\n    string latitude;\n    string longitude;\n  }\n\n  mapping(uint => Place) public places;\n  mapping(uint => Checkin) public checkins;\n  // Place[] public places;\n  // Checkin[] public checkins;\n\n  event CreatePlace(\n    uint _id,\n    address indexed _owner, \n    string _name, \n    string _latitude, \n    string _longitude \n  );\n\n  event UserCheckIn(\n    uint _placeid,\n    address _user,\n    uint _checkintime,\n    string _latitude,\n    string _longitude\n  );\n\n  constructor() public {\n    admin = msg.sender;\n  }\n\n  function createPlace(string memory _name, string memory _ipfsHash, string memory _latitude, string memory _longitude) public {\n    placeCount ++;\n    places[placeCount] = Place(placeCount, msg.sender, _name, _ipfsHash, _latitude, _longitude);\n    //places.push(Place(msg.sender, _name, false, _latitude, _longitude));\n  }\n\n  function userCheckIn(uint placeid, string memory _latitude, string memory _longitude) public {\n    userCount ++;\n    checkins[userCount] = Checkin(placeid, msg.sender, now, _latitude, _longitude);\n    //checkins.push(Checkin(placeid, msg.sender, now, _latitude, _longitude));\n  } \n\n}",
  "sourcePath": "/Users/yosuke.aramaki/Desktop/MyApps/eth_todo_react/contracts/PlaceList.sol",
  "compiler": {
    "name": "solc",
    "version": "0.4.25+commit.59dbf8f1.Emscripten.clang"
  },
  "schemaVersion": "2.0.2",
  "updatedAt": "2019-05-13T00:44:41.935Z"
}