{
  "contractName": "PlaceList",
  "abi": [
    {
      "constant": true,
      "inputs": [],
      "name": "checkinCount",
      "outputs": [
        {
          "name": "",
          "type": "uint256"
        }
      ],
      "payable": false,
      "stateMutability": "view",
      "type": "function"
    },
    {
      "constant": true,
      "inputs": [],
      "name": "placeCount",
      "outputs": [
        {
          "name": "",
          "type": "uint256"
        }
      ],
      "payable": false,
      "stateMutability": "view",
      "type": "function"
    },
    {
      "constant": true,
      "inputs": [
        {
          "name": "",
          "type": "address"
        }
      ],
      "name": "users",
      "outputs": [
        {
          "name": "userName",
          "type": "string"
        },
        {
          "name": "ipfsHash",
          "type": "string"
        }
      ],
      "payable": false,
      "stateMutability": "view",
      "type": "function"
    },
    {
      "constant": true,
      "inputs": [
        {
          "name": "",
          "type": "uint256"
        }
      ],
      "name": "places",
      "outputs": [
        {
          "name": "id",
          "type": "uint256"
        },
        {
          "name": "owner",
          "type": "address"
        },
        {
          "name": "name",
          "type": "string"
        },
        {
          "name": "ipfsHash",
          "type": "string"
        },
        {
          "name": "latitude",
          "type": "string"
        },
        {
          "name": "longitude",
          "type": "string"
        }
      ],
      "payable": false,
      "stateMutability": "view",
      "type": "function"
    },
    {
      "inputs": [],
      "payable": false,
      "stateMutability": "nonpayable",
      "type": "constructor"
    },
    {
      "anonymous": false,
      "inputs": [
        {
          "indexed": false,
          "name": "_id",
          "type": "uint256"
        },
        {
          "indexed": true,
          "name": "_owner",
          "type": "address"
        },
        {
          "indexed": false,
          "name": "_name",
          "type": "string"
        },
        {
          "indexed": false,
          "name": "_ipfsHash",
          "type": "string"
        },
        {
          "indexed": false,
          "name": "_latitude",
          "type": "string"
        },
        {
          "indexed": false,
          "name": "_longitude",
          "type": "string"
        }
      ],
      "name": "CreatePlace",
      "type": "event"
    },
    {
      "anonymous": false,
      "inputs": [
        {
          "indexed": false,
          "name": "_placeid",
          "type": "uint256"
        },
        {
          "indexed": false,
          "name": "_user",
          "type": "address"
        },
        {
          "indexed": false,
          "name": "_checkintime",
          "type": "uint256"
        },
        {
          "indexed": false,
          "name": "_latitude",
          "type": "string"
        },
        {
          "indexed": false,
          "name": "_longitude",
          "type": "string"
        }
      ],
      "name": "CheckIn",
      "type": "event"
    },
    {
      "anonymous": false,
      "inputs": [
        {
          "indexed": false,
          "name": "userName",
          "type": "string"
        },
        {
          "indexed": false,
          "name": "ipfsHash",
          "type": "string"
        }
      ],
      "name": "CreateUser",
      "type": "event"
    },
    {
      "constant": false,
      "inputs": [
        {
          "name": "_userName",
          "type": "string"
        },
        {
          "name": "_ipfsHash",
          "type": "string"
        }
      ],
      "name": "createUser",
      "outputs": [],
      "payable": false,
      "stateMutability": "nonpayable",
      "type": "function"
    },
    {
      "constant": true,
      "inputs": [
        {
          "name": "_from",
          "type": "address"
        }
      ],
      "name": "getAdmin",
      "outputs": [
        {
          "name": "",
          "type": "address"
        }
      ],
      "payable": false,
      "stateMutability": "view",
      "type": "function"
    },
    {
      "constant": false,
      "inputs": [
        {
          "name": "_name",
          "type": "string"
        },
        {
          "name": "_ipfsHash",
          "type": "string"
        },
        {
          "name": "_latitude",
          "type": "string"
        },
        {
          "name": "_longitude",
          "type": "string"
        }
      ],
      "name": "createPlace",
      "outputs": [],
      "payable": false,
      "stateMutability": "nonpayable",
      "type": "function"
    },
    {
      "constant": false,
      "inputs": [
        {
          "name": "placeid",
          "type": "uint256"
        },
        {
          "name": "_latitude",
          "type": "string"
        },
        {
          "name": "_longitude",
          "type": "string"
        }
      ],
      "name": "userCheckIn",
      "outputs": [],
      "payable": false,
      "stateMutability": "nonpayable",
      "type": "function"
    },
    {
      "constant": true,
      "inputs": [],
      "name": "getNumberOfCheckin",
      "outputs": [
        {
          "name": "",
          "type": "uint256"
        }
      ],
      "payable": false,
      "stateMutability": "view",
      "type": "function"
    },
    {
      "constant": true,
      "inputs": [],
      "name": "getNumberOfPlace",
      "outputs": [
        {
          "name": "",
          "type": "uint256"
        }
      ],
      "payable": false,
      "stateMutability": "view",
      "type": "function"
    },
    {
      "constant": true,
      "inputs": [
        {
          "name": "_id",
          "type": "uint256"
        },
        {
          "name": "_user",
          "type": "address"
        }
      ],
      "name": "getCheckinListForUser",
      "outputs": [
        {
          "components": [
            {
              "name": "placeid",
              "type": "uint256"
            },
            {
              "name": "user",
              "type": "address"
            },
            {
              "name": "checkintime",
              "type": "uint256"
            },
            {
              "name": "latitude",
              "type": "string"
            },
            {
              "name": "longitude",
              "type": "string"
            }
          ],
          "name": "",
          "type": "tuple"
        }
      ],
      "payable": false,
      "stateMutability": "view",
      "type": "function"
    },
    {
      "constant": true,
      "inputs": [
        {
          "name": "_id",
          "type": "uint256"
        },
        {
          "name": "_placeid",
          "type": "uint256"
        }
      ],
      "name": "getCheckinListForOwner",
      "outputs": [
        {
          "components": [
            {
              "name": "placeid",
              "type": "uint256"
            },
            {
              "name": "user",
              "type": "address"
            },
            {
              "name": "checkintime",
              "type": "uint256"
            },
            {
              "name": "latitude",
              "type": "string"
            },
            {
              "name": "longitude",
              "type": "string"
            }
          ],
          "name": "",
          "type": "tuple"
        }
      ],
      "payable": false,
      "stateMutability": "view",
      "type": "function"
    },
    {
      "constant": true,
      "inputs": [
        {
          "name": "_id",
          "type": "uint256"
        },
        {
          "name": "_user",
          "type": "address"
        }
      ],
      "name": "getAllCheckinList",
      "outputs": [
        {
          "components": [
            {
              "name": "placeid",
              "type": "uint256"
            },
            {
              "name": "user",
              "type": "address"
            },
            {
              "name": "checkintime",
              "type": "uint256"
            },
            {
              "name": "latitude",
              "type": "string"
            },
            {
              "name": "longitude",
              "type": "string"
            }
          ],
          "name": "",
          "type": "tuple"
        }
      ],
      "payable": false,
      "stateMutability": "view",
      "type": "function"
    },
    {
      "constant": true,
      "inputs": [
        {
          "name": "_placeid",
          "type": "uint256"
        }
      ],
      "name": "getNumberOfVisiters",
      "outputs": [
        {
          "name": "",
          "type": "uint256"
        }
      ],
      "payable": false,
      "stateMutability": "view",
      "type": "function"
    }
  ],
  "bytecode": "0x608060405260008055600060015534801561001957600080fd5b5033600260006101000a81548173ffffffffffffffffffffffffffffffffffffffff021916908373ffffffffffffffffffffffffffffffffffffffff160217905550611be88061006a6000396000f3fe6080604052600436106100d0576000357c0100000000000000000000000000000000000000000000000000000000900463ffffffff16806310bfa1fe146100d55780635e98c1c81461011257806364efb22b1461013d5780636c245f2e1461017a57806371d2fa14146101a357806374475319146101e05780638778658a1461020b57806387b162b51461023657806390f4d9661461025f578063933276c91461028a578063a87430ba146102b3578063b462d160146102f1578063e3ad42a41461032e578063e557bb4e1461036b575b600080fd5b3480156100e157600080fd5b506100fc60048036036100f7919081019061163e565b6103ad565b60405161010991906118d4565b60405180910390f35b34801561011e57600080fd5b506101276105f0565b60405161013491906118f6565b60405180910390f35b34801561014957600080fd5b50610164600480360361015f91908101906114bd565b6105fd565b604051610171919061184b565b60405180910390f35b34801561018657600080fd5b506101a1600480360361019c919081019061167a565b610685565b005b3480156101af57600080fd5b506101ca60048036036101c5919081019061163e565b6107cc565b6040516101d791906118d4565b60405180910390f35b3480156101ec57600080fd5b506101f5610a2d565b60405161020291906118f6565b60405180910390f35b34801561021757600080fd5b50610220610a33565b60405161022d91906118f6565b60405180910390f35b34801561024257600080fd5b5061025d600480360361025891908101906114e6565b610a39565b005b34801561026b57600080fd5b50610274610b07565b60405161028191906118f6565b60405180910390f35b34801561029657600080fd5b506102b160048036036102ac9190810190611552565b610b14565b005b3480156102bf57600080fd5b506102da60048036036102d591908101906114bd565b610cbe565b6040516102e892919061189d565b60405180910390f35b3480156102fd57600080fd5b5061031860048036036103139190810190611615565b610e12565b60405161032591906118f6565b60405180910390f35b34801561033a57600080fd5b50610355600480360361035091908101906116f9565b610e74565b60405161036291906118d4565b60405180910390f35b34801561037757600080fd5b50610392600480360361038d9190810190611615565b611089565b6040516103a496959493929190611972565b60405180910390f35b6103b5611354565b600260009054906101000a900473ffffffffffffffffffffffffffffffffffffffff1673ffffffffffffffffffffffffffffffffffffffff168273ffffffffffffffffffffffffffffffffffffffff1614151561041157600080fd5b60048381548110151561042057fe5b906000526020600020906005020160a06040519081016040529081600082015481526020016001820160009054906101000a900473ffffffffffffffffffffffffffffffffffffffff1673ffffffffffffffffffffffffffffffffffffffff1673ffffffffffffffffffffffffffffffffffffffff16815260200160028201548152602001600382018054600181600116156101000203166002900480601f01602080910402602001604051908101604052809291908181526020018280546001816001161561010002031660029004801561053d5780601f106105125761010080835404028352916020019161053d565b820191906000526020600020905b81548152906001019060200180831161052057829003601f168201915b50505050508152602001600482018054600181600116156101000203166002900480601f0160208091040260200160405190810160405280929190818152602001828054600181600116156101000203166002900480156105df5780601f106105b4576101008083540402835291602001916105df565b820191906000526020600020905b8154815290600101906020018083116105c257829003601f168201915b505050505081525050905092915050565b6000600480549050905090565b60008173ffffffffffffffffffffffffffffffffffffffff16600260009054906101000a900473ffffffffffffffffffffffffffffffffffffffff1673ffffffffffffffffffffffffffffffffffffffff1614151561065b57600080fd5b600260009054906101000a900473ffffffffffffffffffffffffffffffffffffffff169050919050565b600460a0604051908101604052808581526020013373ffffffffffffffffffffffffffffffffffffffff16815260200142815260200184815260200183815250908060018154018082558091505090600182039060005260206000209060050201600090919290919091506000820151816000015560208201518160010160006101000a81548173ffffffffffffffffffffffffffffffffffffffff021916908373ffffffffffffffffffffffffffffffffffffffff16021790555060408201518160020155606082015181600301908051906020019061076792919061139a565b50608082015181600401908051906020019061078492919061139a565b505050507f27aa11a6c848f6dddf5526f3bcb579a700feca1b385f88ea1eeebabbbcafb90e83334285856040516107bf959493929190611911565b60405180910390a1505050565b6107d4611354565b8173ffffffffffffffffffffffffffffffffffffffff166004848154811015156107fa57fe5b906000526020600020906005020160010160009054906101000a900473ffffffffffffffffffffffffffffffffffffffff1673ffffffffffffffffffffffffffffffffffffffff161415610a265760048381548110151561085757fe5b906000526020600020906005020160a06040519081016040529081600082015481526020016001820160009054906101000a900473ffffffffffffffffffffffffffffffffffffffff1673ffffffffffffffffffffffffffffffffffffffff1673ffffffffffffffffffffffffffffffffffffffff16815260200160028201548152602001600382018054600181600116156101000203166002900480601f0160208091040260200160405190810160405280929190818152602001828054600181600116156101000203166002900480156109745780601f1061094957610100808354040283529160200191610974565b820191906000526020600020905b81548152906001019060200180831161095757829003601f168201915b50505050508152602001600482018054600181600116156101000203166002900480601f016020809104026020016040519081016040528092919081815260200182805460018160011615610100020316600290048015610a165780601f106109eb57610100808354040283529160200191610a16565b820191906000526020600020905b8154815290600101906020018083116109f957829003601f168201915b5050505050815250509050610a27565b5b92915050565b60015481565b60005481565b604080519081016040528083815260200182815250600560003373ffffffffffffffffffffffffffffffffffffffff1673ffffffffffffffffffffffffffffffffffffffff1681526020019081526020016000206000820151816000019080519060200190610aa992919061139a565b506020820151816001019080519060200190610ac692919061139a565b509050507f5d7db6ebb9695c92f6dc7e6fe81d33235ff7ca246df72d35a5273a7027ea82df8282604051610afb929190611866565b60405180910390a15050565b6000600380549050905090565b6000808154809291906001019190505550600360c06040519081016040528060005481526020013373ffffffffffffffffffffffffffffffffffffffff16815260200186815260200185815260200184815260200183815250908060018154018082558091505090600182039060005260206000209060060201600090919290919091506000820151816000015560208201518160010160006101000a81548173ffffffffffffffffffffffffffffffffffffffff021916908373ffffffffffffffffffffffffffffffffffffffff1602179055506040820151816002019080519060200190610c0592919061139a565b506060820151816003019080519060200190610c2292919061139a565b506080820151816004019080519060200190610c3f92919061139a565b5060a0820151816005019080519060200190610c5c92919061139a565b505050503373ffffffffffffffffffffffffffffffffffffffff167f382e3313f318a4a23f81270639db93737cac66d5093f5c953928f54fa77e523660005486868686604051610cb09594939291906119ef565b60405180910390a250505050565b6005602052806000526040600020600091509050806000018054600181600116156101000203166002900480601f016020809104026020016040519081016040528092919081815260200182805460018160011615610100020316600290048015610d6a5780601f10610d3f57610100808354040283529160200191610d6a565b820191906000526020600020905b815481529060010190602001808311610d4d57829003601f168201915b505050505090806001018054600181600116156101000203166002900480601f016020809104026020016040519081016040528092919081815260200182805460018160011615610100020316600290048015610e085780601f10610ddd57610100808354040283529160200191610e08565b820191906000526020600020905b815481529060010190602001808311610deb57829003601f168201915b5050505050905082565b6000806000905060008090505b600480549050811015610e6a5783600482815481101515610e3c57fe5b9060005260206000209060050201600001541415610e5d5781806001019250505b8080600101915050610e1f565b5080915050919050565b610e7c611354565b81600484815481101515610e8c57fe5b906000526020600020906005020160000154141561108257600483815481101515610eb357fe5b906000526020600020906005020160a06040519081016040529081600082015481526020016001820160009054906101000a900473ffffffffffffffffffffffffffffffffffffffff1673ffffffffffffffffffffffffffffffffffffffff1673ffffffffffffffffffffffffffffffffffffffff16815260200160028201548152602001600382018054600181600116156101000203166002900480601f016020809104026020016040519081016040528092919081815260200182805460018160011615610100020316600290048015610fd05780601f10610fa557610100808354040283529160200191610fd0565b820191906000526020600020905b815481529060010190602001808311610fb357829003601f168201915b50505050508152602001600482018054600181600116156101000203166002900480601f0160208091040260200160405190810160405280929190818152602001828054600181600116156101000203166002900480156110725780601f1061104757610100808354040283529160200191611072565b820191906000526020600020905b81548152906001019060200180831161105557829003601f168201915b5050505050815250509050611083565b5b92915050565b60038181548110151561109857fe5b90600052602060002090600602016000915090508060000154908060010160009054906101000a900473ffffffffffffffffffffffffffffffffffffffff1690806002018054600181600116156101000203166002900480601f0160208091040260200160405190810160405280929190818152602001828054600181600116156101000203166002900480156111705780601f1061114557610100808354040283529160200191611170565b820191906000526020600020905b81548152906001019060200180831161115357829003601f168201915b505050505090806003018054600181600116156101000203166002900480601f01602080910402602001604051908101604052809291908181526020018280546001816001161561010002031660029004801561120e5780601f106111e35761010080835404028352916020019161120e565b820191906000526020600020905b8154815290600101906020018083116111f157829003601f168201915b505050505090806004018054600181600116156101000203166002900480601f0160208091040260200160405190810160405280929190818152602001828054600181600116156101000203166002900480156112ac5780601f10611281576101008083540402835291602001916112ac565b820191906000526020600020905b81548152906001019060200180831161128f57829003601f168201915b505050505090806005018054600181600116156101000203166002900480601f01602080910402602001604051908101604052809291908181526020018280546001816001161561010002031660029004801561134a5780601f1061131f5761010080835404028352916020019161134a565b820191906000526020600020905b81548152906001019060200180831161132d57829003601f168201915b5050505050905086565b60a06040519081016040528060008152602001600073ffffffffffffffffffffffffffffffffffffffff1681526020016000815260200160608152602001606081525090565b828054600181600116156101000203166002900490600052602060002090601f016020900481019282601f106113db57805160ff1916838001178555611409565b82800160010185558215611409579182015b828111156114085782518255916020019190600101906113ed565b5b509050611416919061141a565b5090565b61143c91905b80821115611438576000816000905550600101611420565b5090565b90565b600061144b8235611b09565b905092915050565b600082601f830112151561146657600080fd5b813561147961147482611a8b565b611a5e565b9150808252602083016020830185838301111561149557600080fd5b6114a0838284611b5b565b50505092915050565b60006114b58235611b1b565b905092915050565b6000602082840312156114cf57600080fd5b60006114dd8482850161143f565b91505092915050565b600080604083850312156114f957600080fd5b600083013567ffffffffffffffff81111561151357600080fd5b61151f85828601611453565b925050602083013567ffffffffffffffff81111561153c57600080fd5b61154885828601611453565b9150509250929050565b6000806000806080858703121561156857600080fd5b600085013567ffffffffffffffff81111561158257600080fd5b61158e87828801611453565b945050602085013567ffffffffffffffff8111156115ab57600080fd5b6115b787828801611453565b935050604085013567ffffffffffffffff8111156115d457600080fd5b6115e087828801611453565b925050606085013567ffffffffffffffff8111156115fd57600080fd5b61160987828801611453565b91505092959194509250565b60006020828403121561162757600080fd5b6000611635848285016114a9565b91505092915050565b6000806040838503121561165157600080fd5b600061165f858286016114a9565b92505060206116708582860161143f565b9150509250929050565b60008060006060848603121561168f57600080fd5b600061169d868287016114a9565b935050602084013567ffffffffffffffff8111156116ba57600080fd5b6116c686828701611453565b925050604084013567ffffffffffffffff8111156116e357600080fd5b6116ef86828701611453565b9150509250925092565b6000806040838503121561170c57600080fd5b600061171a858286016114a9565b925050602061172b858286016114a9565b9150509250929050565b61173e81611b25565b82525050565b61174d81611acd565b82525050565b600061175e82611ac2565b808452611772816020860160208601611b6a565b61177b81611b9d565b602085010191505092915050565b600061179482611ab7565b8084526117a8816020860160208601611b6a565b6117b181611b9d565b602085010191505092915050565b600060a0830160008301516117d7600086018261183c565b5060208301516117ea6020860182611744565b5060408301516117fd604086018261183c565b50606083015184820360608601526118158282611789565b9150506080830151848203608086015261182f8282611789565b9150508091505092915050565b61184581611aff565b82525050565b60006020820190506118606000830184611744565b92915050565b600060408201905081810360008301526118808185611753565b905081810360208301526118948184611753565b90509392505050565b600060408201905081810360008301526118b78185611789565b905081810360208301526118cb8184611789565b90509392505050565b600060208201905081810360008301526118ee81846117bf565b905092915050565b600060208201905061190b600083018461183c565b92915050565b600060a082019050611926600083018861183c565b6119336020830187611735565b611940604083018661183c565b81810360608301526119528185611753565b905081810360808301526119668184611753565b90509695505050505050565b600060c082019050611987600083018961183c565b6119946020830188611744565b81810360408301526119a68187611789565b905081810360608301526119ba8186611789565b905081810360808301526119ce8185611789565b905081810360a08301526119e28184611789565b9050979650505050505050565b600060a082019050611a04600083018861183c565b8181036020830152611a168187611753565b90508181036040830152611a2a8186611753565b90508181036060830152611a3e8185611753565b90508181036080830152611a528184611753565b90509695505050505050565b6000604051905081810181811067ffffffffffffffff82111715611a8157600080fd5b8060405250919050565b600067ffffffffffffffff821115611aa257600080fd5b601f19601f8301169050602081019050919050565b600081519050919050565b600081519050919050565b6000611ad882611adf565b9050919050565b600073ffffffffffffffffffffffffffffffffffffffff82169050919050565b6000819050919050565b6000611b1482611adf565b9050919050565b6000819050919050565b6000611b3082611b37565b9050919050565b6000611b4282611b49565b9050919050565b6000611b5482611adf565b9050919050565b82818337600083830152505050565b60005b83811015611b88578082015181840152602081019050611b6d565b83811115611b97576000848401525b50505050565b6000601f19601f830116905091905056fea265627a7a723058204ec60754e4033e3c6a59ed472168f02c44e3032f04d93d93b0c010946c6881e36c6578706572696d656e74616cf50037",
  "source": "pragma solidity >=0.4.21 <0.6.0;\npragma experimental ABIEncoderV2;\n\ncontract PlaceList {\n  uint public placeCount = 0;\n  uint public checkinCount = 0;\n  // ? public \n  address internal admin;\n\n  struct User {\n    string userName;\n    // mapping\n    string ipfsHash;\n  }\n\n  struct Place {\n    uint id;\n    address owner;\n    string name;\n    string ipfsHash;\n    string latitude;\n    string longitude;\n  }\n  \n  struct Checkin {\n    uint placeid;\n    address user;\n    uint checkintime;\n    string latitude;\n    string longitude;\n  }\n\n  struct Hoge {\n    uint id;\n    string text;\n  }\n\n  //mapping(uint => Place) public places;\n  //mapping(address => Checkin) public checkinListForUser;\n  Place[] public places;\n  Checkin[] internal checkins;\n  mapping(address => User) public users;\n\n  event CreatePlace (uint _id, address indexed _owner, string _name, string _ipfsHash, string _latitude, string _longitude);\n  event CheckIn( uint _placeid, address _user, uint _checkintime, string _latitude, string _longitude);\n  event CreateUser (string userName, string ipfsHash);\n\n  constructor() public {\n    admin = msg.sender;\n    //places.push(Place(1, 0x6322eA177D669Ff5674412B49FcE7EB05E8D167E, \"MyPlace\", \"QmTjzYr14n12YAB4bEMj2fEKcNL3G2TBtBKNxFCRe2Bxtg\", \"35.737950000000005\", \"139.7400068\" ));\n    //placeCount++;\n  }\n\n  function createUser(string memory _userName, string memory _ipfsHash) public {\n    users[msg.sender] = User(_userName, _ipfsHash);\n    emit CreateUser(_userName, _ipfsHash);\n  } \n\n  function getAdmin(address _from) external view returns(address) {\n    require(admin == _from);\n    return admin;\n  }\n\n  function createPlace(string memory _name, string memory _ipfsHash, string memory _latitude, string memory _longitude) public {\n    placeCount ++;\n    // places[placeCount] = Place(placeCount, msg.sender, _name, _ipfsHash, _latitude, _longitude);\n    places.push(Place(placeCount, msg.sender, _name, _ipfsHash, _latitude, _longitude));\n    emit CreatePlace(placeCount, msg.sender, _name, _ipfsHash, _latitude, _longitude);\n  }\n\n  function userCheckIn(uint placeid, string memory _latitude, string memory _longitude) public {\n    //checkinListForUser[msg.sender] = Checkin(placeid, msg.sender, now, _latitude, _longitude);\n    checkins.push(Checkin(placeid, msg.sender, now, _latitude, _longitude));\n    //checkinCount ++;\n    emit CheckIn(placeid, msg.sender, now, _latitude, _longitude);\n  } \n\n  function getNumberOfCheckin() external view returns (uint) {\n    return checkins.length;\n  }\n\n  function getNumberOfPlace() external view returns (uint) {\n    return places.length;\n  }\n\n  function getCheckinListForUser(uint _id, address _user) external view returns(Checkin memory) {\n    if (checkins[_id].user == _user) {\n      return checkins[_id]; \n    }\n  }\n\n  function getCheckinListForOwner(uint _id, uint _placeid) external view returns(Checkin memory) {\n    if (checkins[_id].placeid == _placeid) {\n      return checkins[_id]; \n    }\n  }\n\n  function getAllCheckinList(uint _id, address _user) external view returns(Checkin memory) {\n    require(_user == admin);\n    return checkins[_id]; \n  }\n\n  function getNumberOfVisiters(uint _placeid) public view returns(uint) {\n    uint counter = 0;\n    for (uint i = 0; i < checkins.length; i++) {\n      if (checkins[i].placeid == _placeid) {\n        counter++;\n      }\n    }\n    return counter;\n  }\n}",
  "sourcePath": "/Users/takayuki.nakayama/dev/github/eth-checkin-proto/contracts/PlaceList.sol",
  "compiler": {
    "name": "solc",
    "version": "0.5.0+commit.1d4f565a.Emscripten.clang"
  },
  "schemaVersion": "3.0.9",
  "updatedAt": "2019-06-07T06:37:16.091Z",
  "devdoc": {
    "methods": {}
  },
  "userdoc": {
    "methods": {}
  }
}